001000000000050001PARTIDO ALIANZA VERDE                                                                                               01
001000000000050011AURELIJUS RUTENIS ANTANAS                         MOCKUS SIVICKAS                                   19164378       M01
001000000000050021LUIS IVAN                                         MARULANDA GOMEZ                                   10060765       M01
001000000000050031ANTONIO ERESMID                                   SANGUINO PAEZ                                     77020987       M01
001000000000050041JORGE ELIESER                                     PRIETO RIVEROS                                    9650034        M01
001000000000050051JORGE EDUARDO                                     LONDOÑO ULLOA                                     19455957       M01
001000000000050061YEZID RAFAEL                                      GARCIA ABELLO                                     12529803       M01
001000000000050071JOSE AULO                                         POLO NARVAEZ                                      13013842       M01
001000000000050081LIBARDO ENRIQUE                                   BALLESTEROS HERNANDEZ                             15018307       M01
001000000000050091JORGE ELIECER                                     GUEVARA                                           17627893       M01
001000000000050101ANGELICA LISBETH                                  LOZANO CORREA                                     52268342       F01
001000000000050111OSCAR                                             OSPINA QUINTERO                                   6212756        M01
001000000000050121SANDRA LILIANA                                    ORTIZ NOVA                                        23913951       F01
001000000000050131GABRIEL                                           BUSTAMANTE PEÑA                                   76315980       M01
001000000000050141JORGE EDUARDO                                     ARBELAEZ HOYOS                                    79152647       M01
001000000000050151ARGEMIRO                                          BURBANO ORTIZ                                     12230206       M01
001000000000050161DEICY ELENA                                       BERMUDEZ HURTADO                                  35696936       F01
001000000000050171EDGAR ALBERTO                                     POLO DEVIA                                        93406858       M01
001000000000050181JUAN ALEJANDRO                                    RAMIREZ RAMIREZ                                   8162067        M01
001000000000050191FABIO ALEJANDRO                                   MARIÑO VARGAS                                     19226167       M01
001000000000050201DUBET ANTONIO                                     MUÑOZ BEDOYA                                      16111998       M01
001000000000050211DIEGO                                             MUÑOZ MARROQUIN                                   7688292        M01
001000000000050221MIGUEL ANTONIO                                    RODRIGUEZ HORTUA                                  19055140       M01
001000000000050231EDINSON DE JESUS                                  MUÑOZ CIRO                                        71628432       M01
001000000000050241RICARDO MARIA                                     CAÑON PRIETO                                      19397699       M01
001000000000050251GEONEY                                            SANABRIA CABULO                                   17342750       M01
001000000000050261BLANCA YULIMA                                     LOMBANA GONZALEZ                                  51720882       F01
001000000000050271JESUS MARIA                                       RAMIREZ GUERRERO                                  19256586       M01
001000000000050281ENRIQUE                                           BELTRAN PARDO                                     19365519       M01
001000000000050291JAVIER ANDRES                                     AVILA SALCEDO                                     7177575        M01
001000000000050301JUAN CARLOS                                       BARRERA VALENCIA                                  75078864       M01
001000000000050311JORGE ENRIQUE                                     LANCHEROS DELGADILLO                              3010417        M01
001000000000050321GERSON                                            ROBAYO DIAZ                                       86063284       M01
001000000000050331JUAN LUIS                                         CASTRO CORDOBA                                    71772016       M01
001000000000050341FERNANDO                                          MERCHAN RAMOS                                     80110620       M01
001000000000050351MARLENY                                           BARRERA LOPEZ                                     40370699       F01
001000000000050361RAQUEL SOFIA                                      AMAYA ARIAS                                       51708731       F01
001000000000050371DONALDO DE JESUS                                  GONZALEZ ROJAS                                    19788840       M01
001000000000050381SOLARIUS                                          TORIJANO ALFONSO                                  1019008874     M01
001000000000050391VICTOR ELIAS                                      COPETE QUINTO                                     2774682        M01
001000000000050401HORACIO                                           CORREA GARRIDO                                    73078277       M01
001000000000050411JOSE                                              BERNAL GARCIA                                     13490065       M01
001000000000050421GISELLA ENERIET                                   RIOS SANCHEZ                                      65703255       F01
001000000000050431AURA ISABEL                                       GRANADA SANCHEZ                                   31449392       F01
001000000000050441FRANCISCO JOSE                                    RUIZ MARMOLEJO                                    16449929       M01
001000000000050451OSCAR ALBERTO                                     ARENALES VERGARA                                  19358844       M01
001000000000050461RAFAEL GUSTAVO                                    GUERRERO TAPIAS                                   6869171        M01
001000000000050471FERNANDO                                          QUINTERO ARTURO                                   19386354       M01
001000000000050481SONIA ELVIRA                                      VELOZA MOGOLLON                                   52345994       F01
001000000000050491ANTONIO JOSE                                      ANDRADE ARRIAGA                                   11792395       M01
001000000000050501OSCAR                                             VANEGAS ANGARITA                                  13923256       M01
001000000000050511JOSE MAURICIO                                     MORA RODRIGUEZ                                    80664567       M01
001000000000050521JUAN BAUTISTA                                     AMUD MARTINEZ                                     18222935       M01
001000000000050531LUIS ALFONSO                                      ESCOBAR JARAMILLO                                 12917365       M01
001000000000050541AKEMI SOFIA                                       RAVE HERNANDEZ                                    1020721818     F01
001000000000050551NICOLAS REINEL                                    PICON BARRERA                                     79380040       M01
001000000000050561PATRICIA                                          VALENZUELA BUITRAGO                               55165483       F01
001000000000050591ADRIANA MARIA                                     REINA SANCHEZ                                     28553167       F01
001000000000050601EDWIN ELIAS                                       APARICIO SIERRA                                   8784533        M01
001000000000050641RAUL EDUARDO                                      MOGOLLON ALFONSO                                  80208170       M01
001000000000050661JULIAN ANDRES                                     GARCIA CORTES                                     1053783513     M01
001000000000050681MARCO ANTONIO                                     MEJIA TORRES                                      15255209       M01
001000000000050691JAIME ALBERTO                                     MARTINEZ VELEZ                                    7558631        M01
001000000000050701VICTOR DEL CARMEN                                 MONTENEGRO RUIZ                                   72129268       M01
001000000000050711ANDREA PATRICIA                                   PEÑA VASQUEZ                                      29831870       F01
001000000000050721ALFREDO ENRIQUE                                   VILLADIEGO LORA                                   9173567        M01
001000000000050731JOSE OBERDAN                                      MARTINEZ ROBLES                                   19497309       M01
001000000000050741MAXIMINO ANTONIO                                  RODRIGUEZ ARRIETA                                 72012437       M01
001000000000050751JESICA MARIA                                      MONROY CASSIANI                                   32581316       F01
001000000000050761MARTIN ALONSO                                     ALVARADO NAVIA                                    17112110       M01
001000000000050771ODORICO ENRIQUE                                   GUERRA SALGADO                                    19615281       M01
001000000000050791LUISA ELENA                                       PINEDO MARTINEZ                                   49761855       F01
001000000000050801ALFREDO                                           BENAVIDES CASTILLEJO                              79363340       M01
001000000000050811ROCIO DEL PILAR                                   FAJARDO VARGAS                                    52858969       F01
001000000000050821MARIA DEL CARMEN                                  CLAVIJO GOMEZ                                     39768152       F01
001000000000050831LUZ NEILA                                         POLO RAMIREZ                                      1088352436     F01
001000000000050841ANA EBELIA                                        GAMEZ FIGUEREDO                                   39949703       F01
001000000000050851DIANA MARCELA                                     OLAYA SANCHEZ                                     52933479       F01
001000000000050861NANCY YANETH                                      RIAÑO CASTRO                                      52300032       F01
001000000000050871CARMEN PATRICIA                                   CASTELLANOS CASTELLANOS                           39948905       F01
001000000000050881LILI                                              BARON ALARCON                                     51971940       F01
001000000000050891CIELO AMPARO                                      BERNAL GUARNIZO                                   51671804       F01
001000000000050901LUIS ARGEMIRO                                     MALAMBO MARTINEZ                                  79361339       M01
001000000000050911ARLEY FERNANDO                                    GOMEZ HERNANDEZ                                   17330288       M01
001000000000050921LINDSAY BRIGITTE                                  BECERRA LEON                                      52394285       F01
001000000000050931PASTORA ALICIA                                    MARIN                                             51759790       F01
001000000000050941CLAUDIA ALEJANDRA                                 TERRA GUERRA                                      60291045       F01
001000000000051001IVAN LEONIDAS                                     NAME VASQUEZ                                      3228280        M01
001000000000030001PARTIDO OPCIÓN CIUDADANA                                                                                            02
001000000000030011ANTONIO JOSE                                      CORREA JIMENEZ                                    72003250       M02
001000000000030021DORIS CLEMENCIA                                   VEGA QUIROZ                                       41770826       F02
001000000000030031RUMMENIGGE                                        MONSALVE ALVAREZ                                  72053180       M02
001000000000030041WILLIAM ALBERTO                                   RODRIGUEZ CABAL                                   16275853       M02
001000000000030051EDWIN JAVIER                                      RAMIREZ LOPERA                                    98659850       M02
001000000000030061FRANCISCO JAVIER                                  ALVARADO NIÑO                                     74323654       M02
001000000000030071JULIO MIGUEL                                      GUERRA SOTTO                                      79777511       M02
001000000000030081JORGE RICARDO                                     PINEDA                                            19272320       M02
001000000000030091LUZ ANGELICA                                      GARCIA GARCIA                                     47437026       F02
001000000000030101JOSE LUIS                                         MEJIA AMAYA                                       91245138       M02
001000000000030111JOSE ROGELIO                                      GARCIA ORTEGON                                    7313084        M02
001000000000030121HEDRIX HAISE                                      GUTIERREZ IBARGUEN                                11814297       M02
001000000000030131MONICA MARIA                                      GOMEZ GUERRERO                                    30737549       F02
001000000000030141LUZ DARY                                          LOZANO ALVARADO                                   21239750       F02
001000000000030151FERNANDO ANDRES                                   GOMEZ BACCI                                       72346252       M02
001000000000030161LUIS ARBEY                                        CARDONA VEGA                                      13389207       M02
001000000000030171JOSE DOMINGO                                      CASTILLO TORRES                                   79859427       M02
001000000000030181NELSON GERMAN                                     NEIRA SALINAS                                     79500280       M02
001000000000030191ALVARO YESITH                                     HERNANDEZ VELASQUEZ                               79867600       M02
001000000000030201RICARDO                                           HERRERA CORREA                                    13929086       M02
001000000000030211DORA MARIA                                        RODRIGUEZ TOBAR                                   30738077       F02
001000000000030221RONALD ENRRIQUE                                   ARENILLAS MANJARRES                               7603887        M02
001000000000030231ROSA YANIT                                        MARTINEZ PEREZ                                    1098613791     F02
001000000000030241JOSE                                              POLO PUELLO                                       73118358       M02
001000000000030251NINFA                                             BAQUERO MURGAS                                    42498792       F02
001000000000030261RAFAEL DARIO                                      VELANDIA GONZALEZ                                 84078105       M02
001000000000030271JOSE BENJAMIN                                     CAÑON CUBILLOS                                    80495708       M02
001000000000030281ARIS MANUEL                                       TORRES DIAZ                                       78763447       M02
001000000000030291OLGA LUCIA                                        SANTOS SOTO                                       63349444       F02
001000000000030301ELSY MARIA                                        MARMOLEJO GARCIA                                  35892004       F02
001000000000030311JORGE ENRIQUE                                     GUTIERREZ TOBAR                                   79536846       M02
001000000000030321CARLOS FERNANDO                                   SANCHEZ BELTRAN                                   80497219       M02
001000000000030331LICEL CRISTINA                                    DUMAR HERAZO                                      45692780       F02
001000000000030341YASMIN LICED                                      PALACIOS NIÑO                                     52121276       F02
001000000000030351JHON FREDY                                        GONZALEZ GARCIA                                   74186455       M02
001000000000030361DANIEL FERNANDO                                   MEJIA LOZANO                                      74083904       M02
001000000000030371SHIRLEY PATRICIA                                  ALVAREZ CORDOBA                                   41108227       F02
001000000000030381CLAUDIA AZUCENA                                   YAYA MARIÑO                                       52186150       F02
001000000000030391LIGIO                                             GOMEZ GOMEZ                                       4079548        M02
001000000000030411LEOPOLDO                                          DE LA ROSA ARIZA                                  85475135       M02
001000000000030421SANDRA PATRICIA                                   BOLAÑOS CASTELBLANCO                              52107672       F02
001000000000030431SANDRA LUPERLY                                    TAVERA BUSTOS                                     51772095       F02
001000000000030441RICARDO                                           HURTADO BRAVO                                     19167575       M02
001000000000030451MILDRED DEL CARMEN                                JIMENEZ PALMA                                     45426660       F02
001000000000030461FERNANDO RAUL                                     CASTRO JIMENEZ                                    15683113       M02
001000000000030471DANIEL ORLANDO                                    GUTIERREZ RAMOS                                   79207525       M02
001000000000030491CARLOS ENRIQUE                                    FORERO SANCHEZ                                    5992754        M02
001000000000030501ALEJANDRO DE JESUS                                HERRERA BUSTILLO                                  73548863       M02
001000000000030511MARTHA                                            RINCON CAMARGO                                    63483054       F02
001000000000030521VICTOR MANUEL                                     QUILINDO MEDINA                                   7710186        M02
001000000000030531WILDER                                            VANEGAS MENESES                                   12240692       M02
001000000000030541TEYLOR ESLOVER                                    MOSQUERA OSMA                                     79497633       M02
001000000000030551EDISON ALEXANDER                                  MARIN                                             14892928       M02
001000000000030561RAMON                                             MARIN CERON                                       19496503       M02
001000000000030571JAIME                                             GOMEZ SILVA                                       19319029       M02
001000000000030581LUIS ARTURO                                       RODRIGUEZ MACIAS                                  80058171       M02
001000000000030591ELIBERTO                                          GERENA SOSA                                       19380157       M02
001000000000030601CESAR AUGUSTO                                     CARDALES CORREA                                   92503081       M02
001000000000030611GLADYS                                            AVELLANEDA                                        41676828       F02
001000000000030621SAMUEL HERNANDO                                   BOCANEGRA RAMIREZ                                 79613761       M02
001000000000030631ISMAEL ANTONIO                                    GONZALEZ MOLINA                                   80440476       M02
001000000000030641JAIRO                                             VALLEJO ROMAN                                     10246576       M02
001000000000030651JAIME                                             SANCHEZ GARCIA                                    19336029       M02
001000000000030661OLGA LUCIA                                        CRISTO TREJOS                                     52101351       F02
001000000000030671CARLOS ARTURO                                     BALANZO PADILLA                                   19453071       M02
001000000000030681JOSEFINA                                          PEDRAZA DE PABON                                  37830679       F02
001000000000030691JOVANNY                                           VASQUEZ GUTIERREZ                                 17653154       M02
001000000000030701MERLING                                           SOTO                                              16609550       M02
001000000000030711ARMANDO ANTONIO                                   DIAZ PEÑARANDA                                    72152282       M02
001000000000030721JUAN JOSE REINALDO                                CAÑON PEREZ DE LA FUENTE                          80018134       M02
001000000000030731DANILO ARMANDO                                    FANDIÑO RODRIGUEZ                                 80060241       M02
001000000000030741EDUARDO DAVID                                     SUAREZ MORENO                                     7162080        M02
001000000000030751HECTOR                                            ESCUDERO LOPEZ                                    7523548        M02
001000000000030761LUZ MARINA                                        DIAZ DIAZ                                         46362818       F02
001000000000030771WILDER RENE                                       CASTIBLANCO MANDON                                72171475       M02
001000000000030781MANUEL JOSE                                       JAUREGUI                                          13482104       M02
001000000000030801CARLOS ENRIQUE                                    MENDEZ BARBOZA                                    73127202       M02
001000000000030811JOSE HUMBERTO                                     BARRERA AMAYA                                     74845760       M02
001000000000030821GUSTAVO ADOLFO                                    CORREA HERRERA                                    86055068       M02
001000000000030831CELIX HERNAN                                      HERNANDEZ                                         79102805       M02
001000000000030841JOSE SANTIAGO                                     CASTAÑEDA VALENCIA                                8742629        M02
001000000000030851MIGUEL ANGEL                                      LEGUIZAMON ORJUELA                                17165834       M02
001000000000030861JAIME RAUL                                        RODRIGUEZ VERANO                                  8411314        M02
001000000000030871MARIA PUBENZA                                     ARBELAEZ SUA                                      51553926       F02
001000000000030881RENE                                              NAVAS TRIANA                                      80281636       M02
001000000000030891DIANA ARACELLY                                    VARGAS JIMENEZ                                    37723807       F02
001000000000030901MERCEDES                                          JIMENEZ GARCIA                                    1097990215     F02
001000000000030911ANDREA CAROLINA                                   CHAPARRO MESA                                     52798121       F02
001000000000030921JUDITH IRENE                                      BAEZ SEPULVEDA                                    63332182       F02
001000000000030931CARMEN MARIA                                      BARRERA DE GALEANO                                28680206       F02
001000000000030941INGRID SHIRLEY                                    ROZO AVENDAÑO                                     53119015       F02
001000000000030961ALBA CRISTINA                                     BEDOYA                                            52468204       F02
001000000000030971CARLOS JULIO                                      BARRAGAN MENESES                                  79456793       M02
001000000000030981VICTOR                                            VELASQUEZ REYES                                   3296610        M02
001000000000030991JHON LEONCIO                                      JARAMILLO RIAÑO                                   17325485       M02
001000000000031001EDGAR                                             ESPINDOLA NIÑO                                    9529149        M02
001000000000020001PARTIDO CONSERVADOR COLOMBIANO                                                                                      03
001000000000020011MIGUEL                                            GOMEZ MARTINEZ                                    79151911       M03
001000000000020021DAVID ALEJANDRO                                   BARGUIL ASSIS                                     79939363       M03
001000000000020031EFRAIN JOSE                                       CEPEDA SARABIA                                    7455054        M03
001000000000020041CARLOS ANDRES                                     TRUJILLO GONZALEZ                                 98628532       M03
001000000000020051ROBERTO VICTOR                                    GERLEIN ECHEVERRIA                                17013868       M03
001000000000020061SOLEDAD                                           TAMAYO TAMAYO                                     41785078       F03
001000000000020071NORA MARIA                                        GARCIA BURGOS                                     34970991       F03
001000000000020081OLGA LUCIA                                        SUAREZ MIRA                                       43432195       F03
001000000000020091ESPERANZA                                         ANDRADE DE OSSO                                   41706818       F03
001000000000020101JUAN CARLOS                                       GARCIA GOMEZ                                      88232721       M03
001000000000020111JUAN MANUEL                                       CORZO ROMAN                                       13459902       M03
001000000000020121MYRIAM ALICIA                                     PAREDES AGUIRRE                                   30710789       F03
001000000000020131JAVIER MAURICIO                                   DELGADO MARTINEZ                                  94381981       M03
001000000000020141JUAN DIEGO                                        GOMEZ JIMENEZ                                     71758156       M03
001000000000020151HUGO                                              TOVAR MARROQUIN                                   19180473       M03
001000000000020161LUIS FRANCISCO                                    CARDOZO MONTAÑA                                   19438752       M03
001000000000020171MAURICIO                                          FERNANDEZ FRANCO                                  80394158       M03
001000000000020181LUIS EDUARDO                                      DE LA HOZ LOPEZ                                   72006127       M03
001000000000020191ADRIANA                                           CASTELLANOS BELTRAN                               1014188523     F03
001000000000020201JAIME LUIS                                        LACOUTURE PEÑALOZA                                79869564       M03
001000000000020211NADYA GEORGETTE                                   BLEL SCAFF                                        52890539       F03
001000000000020221CARLOS EDUARDO                                    ENRIQUEZ MAYA                                     12958801       M03
001000000000020231JAIME ARTURO                                      FONSECA TRIVIÑO                                   19496668       M03
001000000000020241CARLOS IVAN                                       VILLEGAS GIRALDO                                  19391024       M03
001000000000020251HERIBERTO                                         SANABRIA ASTUDILLO                                16885316       M03
001000000000020261BLAS ALBERTO                                      AHUMADA BARRAZA                                   3751501        M03
001000000000020271RUBEN DARIO                                       GIRALDO CARVAJAL                                  80096281       M03
001000000000020281JUAN CARLOS                                       DONADO CAAMAÑO                                    73120601       M03
001000000000020291RICARDO                                           MOSQUERA CAICEDO                                  76284127       M03
001000000000020301CAMILO ANDRES                                     ABRIL JAIMES                                      74770702       M03
001000000000020311GLADYS HELENA                                     ORTIZ FLOREZ                                      43363379       F03
001000000000020321HECTOR MARINO                                     ANGULO CAICEDO                                    79650875       M03
001000000000020331MARIO ROSENDO                                     BAHAMON DUSSAN                                    17151327       M03
001000000000020341AIDA                                              MERLANO REBOLLEDO                                 22523484       F03
001000000000020351LAUREANO AUGUSTO                                  ACUÑA DIAZ                                        72175377       M03
001000000000020361NATALIA                                           MORALES URQUIJO                                   52991109       F03
001000000000020371RODOLFO                                           RINCON SOSA                                       19231718       M03
001000000000020381VIVIANA                                           CHARA NIÑO                                        52476996       F03
001000000000020391CONRADO DE JESUS                                  ROJAS ARANGO                                      4893861        M03
001000000000020401ALBERTO                                           LIZARAZO                                          19483397       M03
001000000000020411ALBERTO                                           DEVIA ESCOBAR                                     80775705       M03
001000000000020421LUZ ALBA                                          MUÑETON JARAMILLO                                 32555201       F03
001000000000020431WILLIAM EDUARDO                                   PEREZ ORTEGA                                      71654180       M03
001000000000020441ROSA MARLENE                                      BURBANO RAMIREZ                                   39696554       F03
001000000000020451MARIANELA                                         CAMELO LEON                                       51648183       F03
001000000000020461PABLO ENRIQUE                                     VALDES RODRIGUEZ                                  80129845       M03
001000000000020471CARLOS ARTURO                                     POSSO MENDOZA                                     73168802       M03
001000000000020481JUAN VICENTE                                      GOMEZ VERDEZA                                     72304317       M03
001000000000020491MIGUEL ANGEL                                      BARRETO CASTILLO                                  93408504       M03
001000000000020501MONICA                                            GONZALEZ HOYOS                                    60358644       F03
001000000000020511OSCAR IVAN                                        PALACIO TAMAYO                                    70876117       M03
001000000000020531HECTOR HORACIO                                    VARGAS                                            2917919        M03
001000000000020541CARLOS GUILLERMO                                  AGUDELO CHAMUCERO                                 80411262       M03
001000000000020551JAIRO ROBERTO                                     RODRIGUEZ DELGADO                                 19070130       M03
001000000000020561ANA DORIS                                         PRIETO TRIVIÑO                                    35507631       F03
001000000000020571SHIRLEY                                           GUERRERO LOPEZ                                    52826086       F03
001000000000020581SORAYA                                            BORRERO AVENDAÑO                                  31987035       F03
001000000000020591JENNY PAOLA                                       VARGAS LOPEZ                                      52973835       F03
001000000000020601ANDRES                                            FORERO MEDINA                                     80416647       M03
001000000000020611MARIA JULIANA                                     SANTOS GARCIA                                     1032403241     F03
001000000000020621JAVIER ENRIQUE                                    MONROY BARRAGAN                                   86058256       M03
001000000000020631JUAN ALBERTO                                      GALLEGO ARANGO                                    71623681       M03
001000000000020641CELSA MARIA                                       GOEZ DURANGO                                      43079418       F03
001000000000020651JOHON ORLANDO                                     GARZON ACOSTA                                     79578832       M03
001000000000020661HECTOR HERNANDO                                   HINCAPIE CARVAJAL                                 93452837       M03
001000000000020671ANGEL MARIA                                       PRIETO MONCADA                                    11252406       M03
001000000000020681FREDY                                             GONZALEZ CASTIBLANCO                              88030189       M03
001000000000020691FERNANDO MAURICIO                                 MURGUEITIO MILLAN                                 80418548       M03
001000000000020701ANA GLORIA                                        CLAVIJO RISUEÑO                                   37008096       F03
001000000000020711JAVIER                                            CASTRO MONSALVE                                   79590084       M03
001000000000020721LUZ MARINA                                        PARRA SALAMANCA                                   51865514       F03
001000000000020731WILSON GERARDO                                    VINCHERY ROJAS                                    7309328        M03
001000000000020741YEDIS LICET                                       LINDO PINTO                                       40922971       F03
001000000000020751ARGEMIRO JOSE                                     AGAMEZ PALACIO                                    15042633       M03
001000000000020761LUIS JORGE                                        GAMA                                              19406317       M03
001000000000020771JEFFERSON                                         VEGA BUITRAGO                                     1102715255     M03
001000000000020781ROSA ALICIA                                       PORTILLA ROSERO                                   30706330       F03
001000000000020791HECTOR ALFONSO                                    RAMIREZ MORENO                                    79150031       M03
001000000000020801SARA MILENA                                       LASTRA URECHE                                     1124361322     F03
001000000000020811JOSE ALBERTO                                      LEGUIZAMO VELASQUEZ                               19256608       M03
001000000000020821LUIS ALCIBIADES                                   HERNANDEZ CASTELLANOS                             14246417       M03
001000000000020831MELKIS GUILLERMO                                  KAMMERER KAMMERER                                 77027967       M03
001000000000020841JUAN JOSE                                         SANTACRUZ RODRIGUEZ                               1085262710     M03
001000000000020851ANDRES ALIRIO                                     CORREDOR CORREDOR                                 74378582       M03
001000000000020861RUTH ESPERANZA                                    TELLEZ SANCHEZ                                    51796094       F03
001000000000020871CRISTIAN ESTEBAN                                  RAMIREZ ROMERO                                    79983388       M03
001000000000020881NELLY DEL CARMEN                                  LOPEZ DORIA                                       30653362       F03
001000000000020891HENRY RAFAEL                                      CALDERON TORRES                                   79641196       M03
001000000000020901GUSTAVO ADOLFO                                    ESCUDERO ARANDA                                   80413040       M03
001000000000020931LINDOR LEXCER                                     LESMES INFANTE                                    86044703       M03
001000000000020951MARLENY                                           MONDRAGON PIÑEROS                                 51901313       F03
001000000000020961JHEYSON OVIDIO                                    LONDOÑO ARANGO                                    94328759       M03
001000000000020991LUIS FERNANDO                                     URREGO CARVAJAL                                   17641652       M03
001000000000021001JUAN SAMY                                         MERHEG MARUN                                      10131929       M03
001000000000120001PARTIDO CENTRO DEMOCRÁTICO                                                                                          04
001000000000120011ALVARO                                            URIBE VELEZ                                       70041053       M04
001000000000120021MARIA DEL ROSARIO                                 GUERRA DE LA ESPRIELLA                            51636557       F04
001000000000120031PALOMA SUSANA                                     VALENCIA LASERNA                                  25280205       F04
001000000000120041FERNANDO NICOLAS                                  ARAUJO RUMIE                                      73197942       M04
001000000000120051ERNESTO                                           MACIAS TOVAR                                      12187043       M04
001000000000120061PAOLA ANDREA                                      HOLGUIN MORENO                                    43585559       F04
001000000000120071HONORIO MIGUEL                                    HENRIQUEZ PINEDO                                  85461456       M04
001000000000120081NOHORA STELLA                                     TOVAR REY                                         40379689       F04
001000000000120091RUBY HELENA                                       CHAGUI SPATH                                      52863429       F04
001000000000120101MARIA FERNANDA                                    CABAL MOLINA                                      51847750       F04
001000000000120111MILLA PATRICIA                                    ROMERO SOTO                                       60400908       F04
001000000000120121SERGIO RAFAEL                                     ARAUJO CASTRO                                     77014422       M04
001000000000120131GABRIEL JAIME                                     VELASCO OCAMPO                                    94367959       M04
001000000000120141JAIME ALEJANDRO                                   AMIN HERNANDEZ                                    72134948       M04
001000000000120151CIRO ALEJANDRO                                    RAMIREZ CORTES                                    81720287       M04
001000000000120161CLAUDIA MARIA                                     BUSTAMANTE CEBALLOS                               43729654       F04
001000000000120171CARLOS FELIPE                                     MEJIA MEJIA                                       10257313       M04
001000000000120181DANIEL ALBERTO                                    CABRALES CASTILLO                                 78753250       M04
001000000000120191PIERRE EUGENIO                                    GARCIA JACQUIER                                   81717355       M04
001000000000120201SANTIAGO                                          VALENCIA GONZALEZ                                 81715481       M04
001000000000120211YENNY ESPERANZA                                   ROZO ZAMBRANO                                     35394596       F04
001000000000120221ALFREDO                                           RANGEL SUAREZ                                     6757155        M04
001000000000120231CARLOS ALBERTO                                    GOMEZ GOMEZ                                       13810800       M04
001000000000120241MARIA REGINA                                      ZULUAGA HENAO                                     43380053       F04
001000000000120251OSWALDO FERRI                                     ORTIZ RAMOS                                       73202337       M04
001000000000120261EVERTH                                            BUSTAMANTE GARCIA                                 11330441       M04
001000000000120271LEON RIGOBERTO                                    BARON NEIRA                                       1061389        M04
001000000000120281EDUARDO JOSE                                      ALVARADO SANTANDER                                12968252       M04
001000000000120291EVAMARIA                                          URIBE TOBON                                       22418400       F04
001000000000120301CARLOS MANUEL                                     MEISEL VERGARA                                    72357139       M04
001000000000120311LEONARDO ALFONSO                                  BARRERO GORDILLO                                  19410615       M04
001000000000120321ALEJANDRO                                         CORRALES ESCOBAR                                  10027445       M04
001000000000120331EDUARDO JOSE                                      GONZALEZ ANGULO                                   10531271       M04
001000000000120341LUIS OSWALDO                                      PARADA PRIETO                                     79456223       M04
001000000000120351JOSE MIGUEL                                       SANTAMARIA URIBE                                  80411862       M04
001000000000120361AMANDA ROCIO                                      GONZALEZ RODRIGUEZ                                52425830       F04
001000000000120371MIGUEL ALBERTO                                    MATUS ALVARADO                                    80190241       M04
001000000000120381FABIO                                             ARISTIZABAL ANGEL                                 79373629       M04
001000000000120391CARLOS ALBERTO                                    SIERRA MURILLO                                    16761696       M04
001000000000120401YOHANA                                            SALAMANCA JIMENEZ                                 52385508       F04
001000000000120411NICOLAS                                           PEREZ VASQUEZ                                     71788877       M04
001000000000120421JOHN HAROLD                                       SUAREZ VARGAS                                     14891259       M04
001000000000120431BRASILIA                                          ROMERO SINISTERRA                                 34678337       F04
001000000000120441JOSE JOHN                                         MARULANDA MARIN                                   10222111       M04
001000000000120451ALVARO                                            GUZMAN ORJUELA                                    11319057       M04
001000000000120461HERNANDO                                          MARQUEZ ARISTIZABAL                               7532725        M04
001000000000120471QUINTIN                                           HERRERA QUIROZ                                    13847531       M04
001000000000120481LUIS ALFONSO                                      PLAZAS VEGA                                       17108499       M04
001000000000120491PABLO ANDRES                                      GUERRERO PEREZ                                    12975347       M04
001000000000120501ROBINSON                                          GONZALEZ GONZALEZ                                 19484561       M04
001000000000120511JULIA ISABEL                                      ESCALLON SALGAR                                   41760093       F04
001000000000120521LESZLI                                            KALLI LOPEZ                                       37841604       F04
001000000000120531EMMANUEL ENRIQUE                                  ARANGO GOMEZ                                      2231244        M04
001000000000120541ZAIDA DEL CARMEN                                  BARRERO CUERVO                                    23268546       F04
001000000000120551HECTOR AUGUSTO                                    LOPEZ CASTAÑEDA                                   19326136       M04
001000000000120561ANA MARIA                                         ABELLO RESTREPO                                   32740971       F04
001000000000120571FRANKLIN ORLANDO                                  MOSQUERA MONTOYA                                  11787926       M04
001000000000120581BASILIO                                           VILLAMIZAR TRUJILLO                               13235574       M04
001000000000120591VIVIANA                                           MANRIQUE ZULUAGA                                  52532369       F04
001000000000120601JOSE OBDULIO                                      GAVIRIA VELEZ                                     70042696       M04
001000000000750001MOVIMIENTO TODOS SOMOS COLOMBIA "TSC"                                                                               05
001000000000750011DIANA PAOLA                                       ALARCON SEVILLANO                                 52273913       F05
001000000000750021GUILLERMO ENRIQUE                                 GONZALEZ OCHOA                                    71451657       M05
001000000000750031JUAN RUFINO                                       SANTOS VALENCIA                                   71978322       M05
001000000000750041HORACIO                                           VARGAS VALENCIA                                   14978354       M05
001000000000750051MARINO                                            SANCHEZ AGUILAR                                   11785018       M05
001000000000750061JOSE ARON                                         CASAS BEITAR                                      11796002       M05
001000000000750071HELMER RAMIRO                                     SILVA RODRIGUEZ                                   19101082       M05
001000000000750081TITO ALONSO                                       ORTIZ ZARATE                                      4096710        M05
001000000000750091JOSE LEOPOLDO                                     ANGULO SUAREZ                                     16475295       M05
001000000000750101GIOVANNY                                          SANTOS AGUILAR                                    79948928       M05
001000000000750111ALEX ADOLFO                                       PATIÑO RODRIGUEZ                                  13542271       M05
001000000000750121ROBERTO MARIO                                     CAICEDO BANGUERA                                  12952463       M05
001000000000750131WILSON                                            RUEDA BARON                                       91013376       M05
001000000000750141RAFAEL HUMBERTO                                   VILLAMIZAR APONTE                                 19131382       M05
001000000000750151GARYN RICARDO                                     PACHON ATUESTA                                    79545685       M05
001000000000750161BEATRIZ ELENA                                     RESTREPO VELASQUEZ                                43068207       F05
001000000000750171LUIS ALBERTO                                      MANIOS VANEGAS                                    12122618       M05
001000000000750181CESAR EUGENIO                                     FORTICH PALENCIA                                  9092539        M05
001000000000750191RICARDO EMERAMO                                   BARRERO FERNANDEZ                                 79859870       M05
001000000000750201JOSE ANTONIO                                      SIERRA OQUENDO                                    73079713       M05
001000000000750211MILQUIADES                                        HERNANDEZ MARTINEZ                                7450595        M05
001000000000750221BERTHA JOSEFA                                     PEÑARANDA PEREZ                                   40917828       F05
001000000000750231CARMENZA                                          MORENO VIUCHE                                     65746884       F05
001000000000750241SILVIO GUILLERMO                                  LOPEZ CHAVES                                      5379507        M05
001000000000750251MOISES                                            REYES REYES                                       19120647       M05
001000000000750261MAURICIO                                          VELOSA AREVALO                                    11343975       M05
001000000000750271ANA MILENA                                        GONZALEZ VANEGAS                                  52978842       F05
001000000000750281FRANCISCO HARBEY                                  VARGAS VIVAS                                      79699588       M05
001000000000750291OLGA LUCIA                                        CARREÑO YOMAYUSA                                  39796883       F05
001000000000750301HECTOR AUGUSTO                                    ROJAS CASTAÑO                                     11384407       M05
001000000000750311ROSA NATIVIDAD                                    ARIAS ARIZA                                       49747016       F05
001000000000750321SANDRA PATRICIA                                   VELEZ SANTA                                       31096459       F05
001000000000750331JOSE MARIA                                        SILVA PEDRAZA                                     19183258       M05
001000000000750341ELIAS ROMAN                                       CASTAÑO PINEDA                                    71610964       M05
001000000000750351AMAURY DE JESUS                                   BLOOM PUPO                                        72204753       M05
001000000000750361ANGEL RAFAEL                                      GARRIDO OTERO                                     15043127       M05
001000000000750371JORGE ANTONIO                                     MONTENEGRO BOHORQUEZ                              19286202       M05
001000000000750381JORGE ISAAC                                       ARAMBURO GARCIA                                   6176850        M05
001000000000750391PABLO EMILIO                                      DIAZ LARA                                         78749801       M05
001000000000750401MARIA RITA                                        MEJIA REYNEL                                      45486414       F05
001000000000750411CARMEN ROSA                                       BERMUDEZ BONILLA                                  39551804       F05
001000000000750431SILVANO                                           PINZON BARBOSA                                    79253929       M05
001000000000750451JORGE JAVIER                                      PERDOMO VASQUEZ                                   72200398       M05
001000000000750461YESMID YANETH                                     RESTREPO CADENA                                   52472552       F05
001000000000750481LUIS ALBERTO                                      NUÑEZ ANDRADE                                     12253746       M05
001000000000750491JOHN RICARDO                                      LONDOÑO PIEDRAHITA                                71713123       M05
001000000000750501VICTOR MIGUEL                                     PEREZ PULIDO                                      74333554       M05
001000000000750511HECTOR AUGUSTO                                    LORDUY GARCIA                                     92501326       M05
001000000000750541LESLIE JOSE                                       LOPEZ HURTADO                                     10528790       M05
001000000000750561EULALIA                                           CASTRO PARRADO                                    20738063       F05
001000000000750581MARY INES                                         GARCIA SALAZAR                                    33103925       F05
001000000000750591OFELIA                                            VELA ZAMORA                                       51628677       F05
001000000000750601GENARO ANTONIO                                    GRACIA SUAREZ                                     79301301       M05
001000000000750611DIEGO FERNANDO                                    OSPINA MARULANDA                                  79891130       M05
001000000000750621GLORIA MARIA                                      RODRIGUEZ DE RUIZ                                 41351003       F05
001000000000750631CARLOS DANIEL                                     PARRA SUAREZ                                      72212528       M05
001000000000750651ELIZABETH MARIA                                   CUESTA MARMOL                                     40977539       F05
001000000000750661NULBER DE JESUS                                   CASTAÑO VASQUEZ                                   98590100       M05
001000000000750671MARLENE                                           PUENTES JARAMILLO                                 63250988       F05
001000000000750681ANTONIO JOSE                                      PABON PEDRAZA                                     13717496       M05
001000000000750691LUZ ADRIANA                                       PADILLA GONZALEZ                                  52927619       F05
001000000000750701HECTOR                                            LOTERO ZULUAGA                                    10284404       M05
001000000000750711LEONARDO                                          COTACACHI ESPINOSA                                1010167986     M05
001000000000750721PAULA BIBIANA                                     NARVAEZ RODRIGUEZ                                 53075221       F05
001000000000750731NESTOR JAIME                                      LOZANO MURILLO                                    17485012       M05
001000000000750741FARITH                                            CASTRO QUINTERO                                   12123895       M05
001000000000750751MARIA CONSUELO                                    FERNANDEZ DE MEDINA                               41769979       F05
001000000000750761WALTER                                            VIDES OCHOA                                       13814006       M05
001000000000750771RAUL ANTONIO                                      NARVAEZ MACIAS                                    3195233        M05
001000000000750781GUILLERMO DANIEL                                  RODRIGUEZ BONILLA                                 10302688       M05
001000000000750791ESPERANZA                                         ORTIZ SANTOS                                      35601023       F05
001000000000750801MARIA IDALI                                       ESPINOSA GOMEZ                                    42090495       F05
001000000000750811FREDY HUMBERTO                                    SARMIENTO PERILLA                                 79739915       M05
001000000000750821FABIAN ALEXIS                                     ZAPATA SANCHEZ                                    13991776       M05
001000000000750841JOSE RAMON                                        BENAVIDES MARIN                                   19292542       M05
001000000000750861PEDRO HERNANDO JOSE                               LESMES MONTENEGRO                                 79362492       M05
001000000000750871NELSON MAURICIO                                   NAVARRO VARGAS                                    79366855       M05
001000000000750881MARIA DEL PILAR                                   RESTREPO ESTERLING                                51859989       F05
001000000000750891JOSE ORLANDO                                      FIGUEROA OSPINA                                   79420513       M05
001000000000750901MARIA CRISTINA                                    GRANADOS VELASQUEZ                                41675759       F05
001000000000750911HILBER OSWALDO                                    RODRIGUEZ DELGADO                                 80277306       M05
001000000000750931ANA CECILIA                                       GARCIA SANCHEZ                                    51755043       F05
001000000000750941MARTHA CECILIA                                    VARGAS SALINAS                                    36158331       F05
001000000000750951LUIS CARLOS                                       ORDOÑEZ PEREZ                                     13473082       M05
001000000000750961RAUL                                              BALLESTEROS PRIETO                                13801774       M05
001000000000750971LUIS HUMBERTO                                     CONTRERAS RINCON                                  13458480       M05
001000000000750991CARLOS ALBERTO                                    SANTACOLOMA                                       16341032       M05
001000000000751001EMERITA DEL CARMEN                                BECERRA CASTILLO                                  40987553       F05
001000000000040001PARTIDO CAMBIO RADICAL                                                                                              06
001000000000040011RODRIGO                                           LARA RESTREPO                                     79682470       M06
001000000000040021CLAUDIA YADIRA INES                               RODRIGUEZ DE CASTELLANOS                          51731518       F06
001000000000040031ARTURO                                            CHAR CHALJUB                                      8532318        M06
001000000000040041DAIRA DE JESUS                                    GALVIS MENDEZ                                     22787867       F06
001000000000040051ANTONIO DEL CRISTO                                GUERRA DE LA ESPRIELLA                            6818444        M06
001000000000040061LUIS EDUARDO                                      DIAZ GRANADOS TORRES                              72308446       M06
001000000000040071CARLOS ABRAHAM                                    JIMENEZ LOPEZ                                     16462230       M06
001000000000040081JOSE LUIS                                         PEREZ OYUELA                                      16697350       M06
001000000000040091ROSMERY                                           MARTINEZ ROSALES                                  51705439       F06
001000000000040101CARLOS FERNANDO                                   MOTOA SOLARTE                                     94324051       M06
001000000000040111ROBERTO JOSE                                      BUELVAS NADER                                     15047309       M06
001000000000040121BERNABE                                           CELIS CARRILLO                                    13835536       M06
001000000000040131EDGAR JESUS                                       DIAZ CONTRERAS                                    13454021       M06
001000000000040141RICHARD ALFONSO                                   AGUILAR VILLA                                     80031743       M06
001000000000040151HAROLD                                            GUERRERO LOPEZ                                    12968672       M06
001000000000040161JUAN MANUEL                                       ARANGO VELEZ                                      14880679       M06
001000000000040171JULIO CESAR                                       MANCERA ACOSTA                                    79615526       M06
001000000000040181DIDIER                                            LOBO CHINCHILLA                                   12566890       M06
001000000000040191CEFERINO                                          MOSQUERA MURILLO                                  16473555       M06
001000000000040201CARLOS EDUARDO                                    ESPINOSA MARTINEZ                                 92510192       M06
001000000000040211TEMISTOCLES                                       ORTEGA NARVAEZ                                    10532825       M06
001000000000040221JOSE OVIDIO                                       CLAROS POLANCO                                    16591851       M06
001000000000040231ELBERTO HEVEO                                     GARZON BARRERA                                    396415         M06
001000000000040241BERTHALY                                          VIAFARA                                           31305024       F06
001000000000040251HERNANDO                                          PONCE PARODI                                      12552478       M06
001000000000040261ERNESTO                                           DAZA SIERRA                                       4170564        M06
001000000000040271JORGE                                             VARON RESTREPO                                    4582258        M06
001000000000040281GLORIA HELENA                                     REBOLLEDO TIGREROS                                31998448       F06
001000000000040291JOSE MARIA                                        REYES VARGAS                                      5624563        M06
001000000000040301JOSE LEOMAR                                       CORTES DELGADO                                    19338255       M06
001000000000040311JUAN FRANCISCO                                    MANTILLA MORENO                                   80062162       M06
001000000000040321JOSE ANTONIO                                      RODRIGUEZ MONTENEGRO                              79381060       M06
001000000000040331FREDY HERNAN                                      PEREZ                                             17326508       M06
001000000000040341DAVID FELIPE                                      CASTILLO CARDENAS                                 1057573434     M06
001000000000040351ANTONIO LUIS                                      ZABARAIN GUEVARA                                  12618227       M06
001000000000040361REINALDO DE JESUS                                 SIERRA RAMIREZ                                    71681009       M06
001000000000040371ALFONSO RAFAEL                                    LEMAITRE SOLEIMAN                                 80422206       M06
001000000000040381ERIC VON                                          CABARCAS GOMEZ                                    8534951        M06
001000000000040391ANDRES FERNANDO                                   VASQUEZ VARGAS                                    9693706        M06
001000000000040401GUSTAVO                                           RAMIREZ OROZCO                                    10029274       M06
001000000000040411ZULMA CONSTANZA                                   CASAS GARCIA                                      52513582       F06
001000000000040421MARIA CLAUDIA                                     GUTIERREZ CASAS                                   53072905       F06
001000000000040431FELIX BIENVENIDO                                  ARIÑO FERNANDEZ                                   5158747        M06
001000000000040441JOSE ADOLFO                                       HERRERA AGUIRRE                                   79391521       M06
001000000000040451WALTER ORLANDO                                    LOPEZ OLARTE                                      79527101       M06
001000000000040461ANA MARIA                                         CASTAÑEDA GOMEZ                                   23180931       F06
001000000000040471JAIRO HERNANDO                                    SALAZAR MORENO                                    17122987       M06
001000000000040481BETTY DEL CARMEN                                  RODRIGUEZ CASTILLA                                33132576       F06
001000000000040491ELKIN DARIO                                       MONTOYA NAVALES                                   70435890       M06
001000000000040501GUILLERMO LEON                                    PALACIO VEGA                                      71733180       M06
001000000000040511ROMAN JOSE                                        OSORIO CARDONA                                    4527683        M06
001000000000040521EDWIN YOBANY                                      VIVAS PEREZ                                       74185128       M06
001000000000040531MIGUEL ALBERTO                                    ROMERO BOLIVAR                                    11236132       M06
001000000000040551FABIAN GERARDO                                    CASTILLO SUAREZ                                   12624106       M06
001000000000040561JAIME ISRAEL                                      GARCIA RUEDA                                      13818496       M06
001000000000040571JORGE IVAN                                        NARANJO GRISALES                                  71575929       M06
001000000000040581MARIA ISABEL                                      CASTILLO PEDROZA                                  53118338       F06
001000000000040591ADRIANA PATRICIA                                  VELEZ DUQUE                                       51949094       F06
001000000000040601JUAN ALFONSO                                      FIERRO MANRIQUE                                   9074129        M06
001000000000040611LUZ ELENA                                         PEDROZA MUÑOZ                                     31383315       F06
001000000000040621KAREM MILENA                                      VERA VARGAS                                       53041618       F06
001000000000040641ANA DELTRUDIS                                     BOHORQUEZ DE PINILLOS                             41628175       F06
001000000000040651MIGUEL HUMBERTO                                   GAMEZ SOTO                                        15886843       M06
001000000000040661DONPOPO                                           AYARA                                             79807211       M06
001000000000040671LUZ MARINA                                        CARDENAS RICO                                     20735971       F06
001000000000040681OSCAR HERNAN                                      VILLALOBOS CHAVARRO                               17338793       M06
001000000000040691MARIO RAMON                                       MENDOZA MENDOZA                                   6875610        M06
001000000000040701OSMAN FERNANDO                                    ROA LOPEZ                                         80854305       M06
001000000000040711SANDRA PATRICIA                                   SALAZAR DIAZ                                      51832839       F06
001000000000040721JUAN CARLOS                                       CLAVIJO FERNANDEZ                                 80424868       M06
001000000000040731ARIEL ANTONIO                                     DURANGO RODRIGUEZ                                 98563121       M06
001000000000040761LUCY CECILIA                                      CAHUEÑO CHAPARRO                                  41483556       F06
001000000000040771ADRIANA                                           SILVA ARBELAEZ                                    51671250       F06
001000000000040781AMPARO                                            REY SANCHEZ                                       52184366       F06
001000000000040791MARIA EUGENIA                                     HURTADO RAMOS                                     63457756       F06
001000000000040801JORGE DAVID                                       BARRETO RINCON                                    80765589       M06
001000000000040811BIBIANA SENETH                                    GIRALDO JARAMILLO                                 53077597       F06
001000000000040841JENIFFER ALEXANDRA                                GOMEZ PEÑALOZA                                    37506644       F06
001000000000040851ELLA CECILIA                                      AYUS SANCHEZ                                      22465969       F06
001000000000040881JONATHAN GILDARDO                                 NUÑEZ GUEVARA                                     86085489       M06
001000000000040891ELIZABETH                                         CARREÑO HERNANDEZ                                 51765526       F06
001000000000040901JULIANA MARIA                                     ESCALANTE GARCIA                                  1126744061     F06
001000000000040911NUBIA CLEMENCIA                                   ARIAS GONZALEZ                                    51641373       F06
001000000000040921BEATRIZ ELENA                                     RIAÑO GARCIA                                      1102813232     F06
001000000000040951ECCEHOMO                                          AYALA CARDENAS                                    91476268       M06
001000000000040971GABRIEL ALBERTO                                   CALLE DEMOYA                                      78291609       M06
001000000000040981CARLOS DAVID                                      GOMEZ ESPITIA                                     80091894       M06
001000000000040991ALEXIS                                            CALVO SARMIENTO                                   80235157       M06
001000000000041001GERMAN                                            VARON COTRINO                                     79308432       M06
001000000000010001PARTIDO LIBERAL COLOMBIANO                                                                                          07
001000000000010011MAURICIO                                          GOMEZ AMIN                                        72273977       M07
001000000000010021FABIO RAUL                                        AMIN SALEME                                       79939507       M07
001000000000010031MIGUEL ANGEL                                      PINTO HERNANDEZ                                   91216951       M07
001000000000010041OLGA LUCIA                                        VELASQUEZ NIETO                                   40396100       F07
001000000000010051IVAN DARIO                                        AGUDELO ZAPATA                                    71694184       M07
001000000000010061ARLETH PATRICIA                                   CASADO DE LOPEZ                                   51701356       F07
001000000000010071LIDIO ARTURO                                      GARCIA TURBAY                                     73547966       M07
001000000000010081EDINSON                                           DELGADO RUIZ                                      19289103       M07
001000000000010091ELEAZAR ALFONSO                                   DURAN MORA                                        17318717       M07
001000000000010101LUIS FERNANDO                                     VELASCO CHAVES                                    10546056       M07
001000000000010111OLGA BEATRIZ                                      GONZALEZ CORREA                                   21920114       F07
001000000000010121RODRIGO                                           VILLALBA MOSQUERA                                 19184765       M07
001000000000010131JAIME ENRIQUE                                     DURAN BARRERA                                     91067354       M07
001000000000010141LAURA ESTER                                       FORTICH SANCHEZ                                   45546723       F07
001000000000010151CARLOS HUMBERTO                                   ISAZA RODRIGUEZ                                   18500523       M07
001000000000010161ANDRES                                            CRISTO BUSTOS                                     13505004       M07
001000000000010171JULIAN                                            BEDOYA PULGARIN                                   71371981       M07
001000000000010181FERNANDO DAVID                                    MURGUEITIO CARDENAS                               16457771       M07
001000000000010191OMAR DE JESUS                                     HOYOS AGUDELO                                     8405418        M07
001000000000010201GUILLERMO                                         GARCIA REALPE                                     12962290       M07
001000000000010221LUIS FERNANDO                                     DUQUE GARCIA                                      6789237        M07
001000000000010231LUCIANO MARCELINO                                 QUIÑONES GARCIA                                   16466399       M07
001000000000010241YOBANY                                            OROZCO VALENCIANO                                 79961328       M07
001000000000010251GRACIELA                                          BAUTISTA NIÑO                                     63284431       F07
001000000000010261LUIS ESNORALDO                                    TORRES OCAMPO                                     5947239        M07
001000000000010271MAYE                                              PLATA VERA                                        63300241       F07
001000000000010281FLORENCIA                                         RAMIREZ HOYOS                                     24311358       F07
001000000000010291LORENT                                            ABAUNZA NIÑO                                      37940123       F07
001000000000010301LUZ PIEDAD                                        VALENCIA FRANCO                                   41913236       F07
001000000000010311ELIANA PATRICIA                                   ANGEL SERNA                                       52531981       F07
001000000000010321CARLOS HUMBERTO                                   PINZON MURIEL                                     70568324       M07
001000000000010331ARTURO                                            PALACIOS ORTEGA                                   19418704       M07
001000000000010341FABIAN ARTURO                                     ORTIZ WILCHES                                     80811218       M07
001000000000010351RAUL                                              CARDONA GRISALES                                  79778311       M07
001000000000010361FANNY                                             PERALTA FONSECA                                   51712428       F07
001000000000010371ANA CECILIA                                       VARGAS FORERO                                     41648250       F07
001000000000010381DIEGO ALEJANDRO                                   RAMIREZ CASTAÑO                                   71791495       M07
001000000000010391KATHERINE                                         MARIÑO TORRES                                     1019012655     F07
001000000000010401AURA VANESSA                                      AGUILAR MORENO                                    35600781       F07
001000000000010421MARIA ELINA DEL CARMEN                            ACOSTA GARZON                                     41662065       F07
001000000000010431LUIS FRANCISCO                                    RINCON AMAYA                                      79556717       M07
001000000000010441LUIS HERNANDO                                     PACHECO MONSALVE                                  79572966       M07
001000000000010451LUZ LARE                                          PACHON AGUDELO                                    39805363       F07
001000000000010461GLORIA JUDITH                                     VELOZA DUARTE                                     41787644       F07
001000000000010471JAIRO EDUARDO                                     CARRILLO SANCHEZ                                  19428129       M07
001000000000010481NANCY DEL ROSARIO                                 GUERRERO RODRIGUEZ                                51737855       F07
001000000000010491RAUL                                              CACERES BERGAÑO                                   1105780885     M07
001000000000010501MARIO ALBERTO                                     CASTAÑO PEREZ                                     75067786       M07
001000000000010511JAIRO HUGO                                        RODRIGUEZ LEON                                    19284293       M07
001000000000010521RICARDO                                           JIMENEZ CALDERON                                  16636466       M07
001000000000010531ROBERTO LUIS                                      MONSALVO RODRIGUEZ                                79947412       M07
001000000000010541ROSA AMPARO                                       QUINTANA VELASQUEZ                                41799900       F07
001000000000010551ROSMERY                                           TORRES SAENZ                                      45444369       F07
001000000000010561ROMULO ALFONSO                                    LEAL LEAL                                         19472852       M07
001000000000010571SONIA DEL PILAR                                   ACUÑA DURAN                                       63320968       F07
001000000000010581TOMAS ALBERTO                                     MENDOZA VILLEGAS                                  5013727        M07
001000000000010591VICTOR HERNEY                                     ROMERO HERNANDEZ                                  80218298       M07
001000000000010611MARLENE                                           RUEDA ACEVEDO                                     63518651       F07
001000000000010621ANDRES MAURICIO                                   VELA CORREA                                       79651110       M07
001000000000010631FREDY OCTAVIO                                     CASTELLANOS CONTRERAS                             11200333       M07
001000000000010641LUIS DANIEL                                       CAMACHO GAITAN                                    1030534879     M07
001000000000010651GUILLERMO DE JESUS                                TUBERQUIA AVENDAÑO                                8419382        M07
001000000000010661LUIS ALBERTO                                      MORENO VALENZUELA                                 91205356       M07
001000000000010671IVAN DARIO                                        OCAMPO TAMAYO                                     71606473       M07
001000000000010681BERNARDO FIDEL                                    CORDOBA DAZA                                      17136969       M07
001000000000010691JAIME ENRIQUE                                     BEDOYA MONTOYA                                    70550090       M07
001000000000010701SOFIA ALEJANDRA                                   GAVIRIA CORREA                                    42894998       F07
001000000000010711FABIO ANTONIO                                     GONZALEZ MENDIETA                                 80129920       M07
001000000000010721ANLET JAQUELINE                                   BENT ARCHBOLD                                     52057765       F07
001000000000010731LUIS FERNANDO                                     BOHORQUEZ REYES                                   1105781414     M07
001000000000010741VICTOR JULIO                                      CASTILLO LEON                                     13848766       M07
001000000000010751SERGIO EDUARDO                                    MANTILLA BENITEZ                                  1095791257     M07
001000000000010761CRISTINA DEL ROSARIO                              CABRERA MENDEZ                                    26585488       F07
001000000000010771ADRIANA                                           GARCIA BETANCOURT                                 51827155       F07
001000000000010791DIANA PAOLA                                       PEDRAZA MORENO                                    52517839       F07
001000000000010801CESAR AUGUSTO                                     GONZALEZ GARCIA                                   19474056       M07
001000000000010811VIVIAN MARIA                                      NAMEN VARGAS                                      49794567       F07
001000000000010821WILSON                                            MORA CARDENAS                                     80433636       M07
001000000000010831LUZ MARINA                                        ROMERO MOTTA                                      51988607       F07
001000000000010841JAIRO                                             MANTILLA COLMENARES                               79140407       M07
001000000000010851LUIS MANUEL                                       RIVAS PARRA                                       19111746       M07
001000000000010861GLORIA ISABEL                                     DUARTE MENDEZ                                     23508186       F07
001000000000010871ANGEL ANTONIO                                     ROZO                                              6013134        M07
001000000000010881ALVARO                                            GARCIA RUIZ                                       19073996       M07
001000000000010891FRANCISCO JAVIER                                  CHAUX CORTES                                      80094440       M07
001000000000010901CLIMACO                                           CUELLAR VALDERRAMA                                18122512       M07
001000000000010921JORGE DANIEL                                      BORJA JAYK                                        72191843       M07
001000000000010931JOSE ABIGAIL                                      MIRANDA VIRGUEZ                                   19443249       M07
001000000000010941JORGE ELIECER                                     TARAZONA HERNANDEZ                                19484607       M07
001000000000010951JORGE EDILSON                                     CARO CANCELADO                                    4096564        M07
001000000000010961JESUS                                             CORRALES CANO                                     17154381       M07
001000000000010971JOHANN STIVEN                                     ROJAS ALVAREZ                                     14639069       M07
001000000000010981ALBERTO                                           PALMA CUERVO                                      14232816       M07
001000000000010991JAVIER TATO                                       ALVAREZ MONTENEGRO                                12962030       M07
001000000000011001HORACIO JOSE                                      SERPA MONCADA                                     81715252       M07
001000000000430000G.S.C. COLOMBIA JUSTA LIBRES                                                                                        08
001000000000430010JOHN MILTON                                       RODRIGUEZ GONZALEZ                                16770885       M08
001000000000430020EDUARDO EMILIO                                    PACHECO CUELLO                                    12541530       M08
001000000000430030EDGAR ENRIQUE                                     PALACIO MIZRAHI                                   85459384       M08
001000000000430040JOSE MARIA                                        VILLANUEVA RAMIREZ                                79115844       M08
001000000000430050SANDRA LILIANA                                    PALACIOS BOHORQUEZ                                65779411       F08
001000000000430090MIGUEL DE JESUS                                   PAREJO OSORIO                                     8759314        M08
001000000000430100MARCO FIDEL                                       ACOSTA RICO                                       1020728410     M08
001000000000430110HECTOR SEGUNDO                                    PEREZ FERNANDEZ                                   9284064        M08
001000000000430120RONALD ORLANDO                                    GUZMAN RAMIREZ                                    7703264        M08
001000000000430130GUSTAVO                                           SALAZAR GALEANO                                   79314733       M08
001000000000430140MISAEL                                            OCAMPO RIVERA                                     10162118       M08
001000000000430150BASILICIA SELMIRA                                 EPIAYU GONZALEZ                                   40877481       F08
001000000000430170PEDRO MANUEL                                      SAUMETH SAENZ                                     12596496       M08
001000000000430180JOSE GUILLERMO                                    PUENTES BARREIRO                                  17634682       M08
001000000000430190CARLOS ALBERTO                                    ROZO OCAMPO                                       79324763       M08
001000000000430200PEDRO ALEJANDRO                                   DAMIAN LEON                                       19452695       M08
001000000000430210LILIA MARIA                                       CALDERON CASTRO                                   39788494       F08
001000000000430220EUSEBIO                                           ABREO LEAL                                        96188392       M08
001000000000430230RAMIRO                                            GALINDO QUINTERO                                  16616429       M08
001000000000430240YULIED                                            ARIAS HERNANDEZ                                   31583064       F08
001000000000430260RUTH LILIANA                                      NAJHAR HURTADO                                    53106584       F08
001000000000430270WILSON EFRAIN                                     CANO HERRERA                                      79654767       M08
001000000000430280WILSON                                            LASSO ANGULO                                      94509986       M08
001000000000430290CARLOS ARTURO                                     CHALARCA PALOMINO                                 10089605       M08
001000000000430330JUAN CAMILO                                       RIVEROS MOYANO                                    80871563       M08
001000000000430350JORGE EMILIO                                      PACHECO MONROY                                    80041243       M08
001000000000430360ADRIANA MARIA                                     GARCIA OROZCO                                     51837719       F08
001000000000430370BETTY YOLANDA                                     CASTRO PARRA                                      51788411       F08
001000000000430400MARIA DEL ROSARIO                                 GONZALEZ KENNEDY                                  32667067       F08
001000000000430420JONATHAN ANDRES                                   PORRAS DE LA OSSA                                 72291686       M08
001000000000430430MARIA CLAUDIA                                     NIÑO OJEDA                                        51832215       F08
001000000000430440JAIRO ALEXANDER                                   ESQUIVEL SUAZA                                    7724657        M08
001000000000430460KAMMILA                                           FERNANDEZ RODRIGUEZ                               29119494       F08
001000000000430530FRANCIA LEIDY                                     MAYA ALVAREZ                                      66878973       F08
001000000000430540JORGE LUIS                                        MAESTRE BENEDETTI                                 72215114       M08
001000000000470000G.S.C. UNIÓN CON FORTALEZA                                                                                          09
001000000000470010JOSE GREGORIO                                     CORREA TAPIAS                                     19874711       M09
001000000000470020NILSON ALBERTO                                    ARRIETA BARRIOS                                   71942835       M09
001000000000470030NURI YANETH                                       CALLEJAS ALVARADO                                 37939545       F09
001000000000470040JHON CARLOS                                       REYES CARRASCAL                                   78713045       M09
001000000000470050LAURA ISABEL                                      CANDIA GUERRA                                     30083483       F09
001000000000470060JAVIER                                            SERENO CAMAÑO                                     91324070       M09
001000000000470070CLEIMAN FRANCISCO                                 IBAÑEZ MORALES                                    78711889       M09
001000000000470080SAUL POMPILIO                                     MIRANDA VENERA                                    77034876       M09
001000000000470090MARIELA ISABEL                                    CARVAJAL PARRA                                    52378418       F09
001000000000470100ANA AUDID                                         LEON MESA                                         52888539       F09
001000000000100001PARTIDO POLO DEMOCRÁTICO ALTERNATIVO                                                                                10
001000000000100011JORGE ENRIQUE                                     ROBLEDO CASTILLO                                  14204889       M10
001000000000100021ALEXANDER                                         LOPEZ MAYA                                        16744638       M10
001000000000100031JAIME                                             DUSSAN CALDERON                                   12102957       M10
001000000000100041SEGUNDO SENEN                                     NIÑO AVENDAÑO                                     6756763        M10
001000000000100051JESUS ALBERTO                                     CASTILLA SALAZAR                                  13375353       M10
001000000000100061WILSON NEBER                                      ARIAS CASTILLO                                    16823075       M10
001000000000100071VICTOR JAVIER                                     CORREA VELEZ                                      1017124846     M10
001000000000100081DARIO GERMAN                                      UMAÑA MENDOZA                                     230714         M10
001000000000100091HERNANDO                                          HERNANDEZ PARDO                                   13885380       M10
001000000000100101IVAN                                              CEPEDA CASTRO                                     79262397       M10
001000000000100111CARLOS ALBERTO                                    BENAVIDES MORA                                    98378183       M10
001000000000100121DOMINGO EMILIO                                    PEREZ CUELLAR                                     17674104       M10
001000000000100131HECTOR                                            CONTRERAS VIZCAINO                                8632570        M10
001000000000100141MILA MARIA                                        PAZ CAMPAZ                                        31531900       F10
001000000000100151RODRIGO HUMBERTO                                  JIMENEZ PATIÑO                                    4238612        M10
001000000000100171PEDRO JOSE                                        PACANCHIQUE AVILA                                 2911191        M10
001000000000100181MANFRI                                            PARRA GARAY                                       11439499       M10
001000000000100191PEDRO LEONIDAS                                    GOMEZ GOMEZ                                       13804037       M10
001000000000100211JOSE ISAURO                                       ROMAN                                             7923790        M10
001000000000100221HUGO ALEJANDRO                                    VASQUEZ VARGAS                                    91287598       M10
001000000000100231ROBERT ENRIQUE                                    ORTEGA SALCEDO                                    78675981       M10
001000000000100241JUAN ALBERTO                                      DE LA ZERDA CASIANO                               7468435        M10
001000000000100251JORGE ALEJANDRO                                   OCAMPO GIRALDO                                    14838849       M10
001000000000100261JORGE ENRIQUE                                     JAIMES PINTO                                      91457236       M10
001000000000100271RAUL ANTONIO                                      BOGOYA ARIAS                                      79429584       M10
001000000000100281WILSON JOSUE                                      HOYOS CATAÑO                                      91439738       M10
001000000000100301LUIS ALFREDO                                      SANCHEZ RUIZ                                      19196937       M10
001000000000100311CARLOS ANDRES                                     VASQUEZ TRONCOSO                                  79925191       M10
001000000000100321ANDRES FELIPE                                     BONILLA MAYA                                      6646338        M10
001000000000100331DARIO ARLEY                                       DUQUE GOMEZ                                       98495704       M10
001000000000100341JOSE ERNESTO                                      URIBE TABARES                                     19360171       M10
001000000000100351FREDY                                             VALENCIA ACOSTA                                   73144136       M10
001000000000100361HUGO ALEJANDRO                                    RIAÑO ANDRADE                                     79660929       M10
001000000000100371ALBERTO MANUEL                                    GASCON GIRALDO                                    84043365       M10
001000000000100381EDGAR DE JESUS                                    GIL GUERRERO                                      3742189        M10
001000000000100391LIDA RADIEL                                       MANZANO GARCIA                                    35486402       F10
001000000000100401RICARDO                                           CARRETERO LOPEZ                                   11379276       M10
001000000000100411ANTONIO                                           MORENO PALACIOS                                   71252224       M10
001000000000100421IVAN ALEXIS                                       PULIDO MORENO                                     79388581       M10
001000000000100431HERNAN ALBERTO                                    RODAS ORTIZ                                       98510294       M10
001000000000100441LUIS CARLOS                                       PATERNOSTRO SEVERICHE                             73265156       M10
001000000000100451FERNANDO LUIS                                     CALAO GONZALEZ                                    15021792       M10
001000000000100461MAX ORLANDO                                       GALEANO GASCA                                     19359558       M10
001000000000100471FABIO                                             PERDOMO ALMEIDA                                   17318041       M10
001000000000100491JOSE DANIEL                                       BOLAÑOS QUESADA                                   12138622       M10
001000000000100501JAIRO FERNANDO RICARDO                            GUTIERREZ                                         79370944       M10
001000000000100521MARIA ANGELICA                                    RODRIGUEZ VEGA                                    1068972712     F10
001000000000100531ROBERTO                                           BRICEÑO CHIRIVI                                   79429601       M10
001000000000100551PAOLA ANDREA                                      TORRES VARGAS                                     1010167064     F10
001000000000100561MARIA ESPERANZA                                   VARGAS ROJAS                                      39520200       F10
001000000000100571MONICA ALEXANDRA                                  TINJACA AMAYA                                     1032411864     F10
001000000000100591DENIS ENRIQUETA                                   CASADO ACOSTA                                     49550403       F10
001000000000100601PAULA ANDREA                                      ZAPATA ZAPATA                                     43606033       F10
001000000000100611ANA MILENA                                        HINESTROZA OSORIO                                 43116470       F10
001000000000100621ANTOLINA ISABEL                                   LASSO RODRIGUEZ                                   32841678       F10
001000000000100631ANDRES FELIPE                                     PEREZ MORILLO                                     1065578111     M10
001000000000100641MARIA AURORA                                      REY FIRACATIVE                                    39536187       F10
001000000000100651NOHORA MARLIS                                     RONCANCIO CASTAÑEDA                               23497723       F10
001000000000100661SANDRA XIMENA                                     SALAMANCA LEIVA                                   52212532       F10
001000000000100671BRENDA CAROLINA                                   JOYA JIMENEZ                                      37721792       F10
001000000000100681LUZ DARI                                          ACOSTA CLAVIJO                                    52096232       F10
001000000000100691MARISOL                                           CASTILLO RAMIREZ                                  52036342       F10
001000000000100701ELINA JUDITH                                      RODRIGUEZ AGUILAR                                 40924860       F10
001000000000100711SANDRA AIDEE                                      ARAQUE GUEVARA                                    60324430       F10
001000000000100721CLAUDIA                                           CAMACHO SOSSA                                     27982809       F10
