010010101ANTIOQUIA   MEDELLIN                      SEC. ESC. LA ESPERANZA NO 2             1000044600000700400003301COMUNA 1 POPULAR              
010010102ANTIOQUIA   MEDELLIN                      INST.EDUC. LA CANDELARIA                1000121560000700300005501COMUNA 1 POPULAR              
010010103ANTIOQUIA   MEDELLIN                      INST.EDUC.MARIA DE LOS A.               1000035750000284800001901COMUNA 1 POPULAR              
010010104ANTIOQUIA   MEDELLIN                      SEC. ESC. MEDELLIN                      1000045290000354400002301COMUNA 1 POPULAR              
010010105ANTIOQUIA   MEDELLIN                      I.E.FE Y ALEGRIA GRANIZAL               1000004120000027500000201COMUNA 1 POPULAR              
010010201ANTIOQUIA   MEDELLIN                      SEC.ESC. PABLO VI                       1000059460002023900007401COMUNA 1 POPULAR              
010010202ANTIOQUIA   MEDELLIN                      SEC. ESC. DIVINA PROVIDENCIA            1000102370000209300003501COMUNA 1 POPULAR              
010010203ANTIOQUIA   MEDELLIN                      SEC.ESC.AGRIPINA MONTES DEL VA          1000127220000474500005001COMUNA 1 POPULAR              
010010204ANTIOQUIA   MEDELLIN                      I.E.FEDERICO CARRASQUILLA               1000004330000029200000301COMUNA 1 POPULAR              
010010205ANTIOQUIA   MEDELLIN                      I.E.GUADALUPE                           1000004910000037500000301COMUNA 1 POPULAR              
010010301ANTIOQUIA   MEDELLIN                      INST. EDUC. ASIA IGNACIANA              1000067250000624700003702COMUNA 2 SANTA CRUZ           
010010302ANTIOQUIA   MEDELLIN                      SEC.ESC.  MANUEL URIBE ANGEL            1000070240000469600003402COMUNA 2 SANTA CRUZ           
010010303ANTIOQUIA   MEDELLIN                      SEC.ESC. REPUB. DE NICARAGUA            1000045720000335400002302COMUNA 2 SANTA CRUZ           
010010304ANTIOQUIA   MEDELLIN                      I.E.FE Y ALEGRIA J.MARIA VELAZ          1000008600000048400000402COMUNA 2 SANTA CRUZ           
010010401ANTIOQUIA   MEDELLIN                      I.E. BARRIO SANTA CRUZ                  1000044730000348300002302COMUNA 2 SANTA CRUZ           
010010402ANTIOQUIA   MEDELLIN                      SEC. ESC. ARZOBISPO GARCIA              1000048700000363900002502COMUNA 2 SANTA CRUZ           
010010403ANTIOQUIA   MEDELLIN                      I.E. REPUBLICA DE HONDURAS              1000039020000295400002002COMUNA 2 SANTA CRUZ           
010010501ANTIOQUIA   MEDELLIN                      I.E. REPUBLICA DE BARBADOS              1000077300000559900003803COMUNA 3 MANRIQUE             
010010502ANTIOQUIA   MEDELLIN                      I.E. SAN LORENZO DE ABURR               1000046800000354400002403COMUNA 3 MANRIQUE             
010010503ANTIOQUIA   MEDELLIN                      I.E. MANUELA BELTRAN                    1000121260000624900005203COMUNA 3 MANRIQUE             
010010504ANTIOQUIA   MEDELLIN                      SEC.ESC.SAN JOSE(I.E. MAN BEL           1000044280000700500003303COMUNA 3 MANRIQUE             
010010505ANTIOQUIA   MEDELLIN                      I.E.RAMON MUNERA LOPERA                 1000008380000056100000403COMUNA 3 MANRIQUE             
010010601ANTIOQUIA   MEDELLIN                      I.E. JOSE ANTONIO GALAN                 1000063600000515800003303COMUNA 3 MANRIQUE             
010010602ANTIOQUIA   MEDELLIN                      I.E. HERNAN TORO AGUDELO                1000057720000463400003003COMUNA 3 MANRIQUE             
010010603ANTIOQUIA   MEDELLIN                      I.E. PEDRO LUIS VILLA(PR)               1000040510000381900002303COMUNA 3 MANRIQUE             
010010701ANTIOQUIA   MEDELLIN                      COL AGUSTINIANO DE SAN NICOLA           1000075370000640400004004COMUNA 4 ARANJUEZ             
010010702ANTIOQUIA   MEDELLIN                      I.E. MONSEÑOR FCO. CRISTOBAL T          1000068760000535800003504COMUNA 4 ARANJUEZ             
010010703ANTIOQUIA   MEDELLIN                      I.E. GILBERTO ALZATE AVENDAÑO           1000063230000526600003304COMUNA 4 ARANJUEZ             
010010704ANTIOQUIA   MEDELLIN                      I.E. CAMPO VALDES                       1000043600000344000002304COMUNA 4 ARANJUEZ             
010010705ANTIOQUIA   MEDELLIN                      I.E.SAN JUAN BOSCO                      1000005140000026700000304COMUNA 4 ARANJUEZ             
010010801ANTIOQUIA   MEDELLIN                      I.E. ALFONSO MORA NARANJO               1000060490000503600003204COMUNA 4 ARANJUEZ             
010010802ANTIOQUIA   MEDELLIN                      I.E. JOSE MARIA BRAVO MARQUEZ           1000035160000277700001804COMUNA 4 ARANJUEZ             
010010803ANTIOQUIA   MEDELLIN                      I.E. FRANCISCO MIRANDA                  1000104050000819600005304COMUNA 4 ARANJUEZ             
010010804ANTIOQUIA   MEDELLIN                      I.E. JAVIERA LONDOÑO                    1000050060000470000002804COMUNA 4 ARANJUEZ             
010010805ANTIOQUIA   MEDELLIN                      I.E. EL BOSQUE                          1000009540000080100000504COMUNA 4 ARANJUEZ             
010010901ANTIOQUIA   MEDELLIN                      I.E. JULIO CESAR GARCIA                 1000066210000530600003405COMUNA 5 CASTILLA             
010010902ANTIOQUIA   MEDELLIN                      SEC. ESC. EDUARDO URIBE BOTER           1000060550000480900003105COMUNA 5 CASTILLA             
010010903ANTIOQUIA   MEDELLIN                      I.E. PBRO. ANTONIO JOSE BERNAL          1000102990000934700005605COMUNA 5 CASTILLA             
010010904ANTIOQUIA   MEDELLIN                      I.E.SEBASTIAN DE BELALCAZAR             1000006970000046800000405COMUNA 5 CASTILLA             
010011001ANTIOQUIA   MEDELLIN                      IE TRICENTENARIO                        1000040680000331900002105COMUNA 5 CASTILLA             
010011002ANTIOQUIA   MEDELLIN                      I.E. MARIA MONTESSORI                   1000060050000434800003005COMUNA 5 CASTILLA             
010011003ANTIOQUIA   MEDELLIN                      INST. EDU REPUBLICA DE URUGUA           1000070030000555000003605COMUNA 5 CASTILLA             
010011004ANTIOQUIA   MEDELLIN                      I.E. MAESTRO ARENAS BETANCUR            1000070200000592800003705COMUNA 5 CASTILLA             
010011005ANTIOQUIA   MEDELLIN                      I.E. DINAMARCA                          1000007980000063500000505COMUNA 5 CASTILLA             
010011101ANTIOQUIA   MEDELLIN                      I.E. CIUDADELA LAS AMERICAS             1000056720000432200002906COMUNA 6 DOCE DE OCTUBRE      
010011102ANTIOQUIA   MEDELLIN                      COL VIDA Y PAZ PROGRESAR UNID           1000046660000364300002406COMUNA 6 DOCE DE OCTUBRE      
010011103ANTIOQUIA   MEDELLIN                      SEC. ESC. LEON DE GREIFF                1000047710000336000002306COMUNA 6 DOCE DE OCTUBRE      
010011104ANTIOQUIA   MEDELLIN                      I.E. DOCE DE OCTUBRE                    1000075790000613400003906COMUNA 6 DOCE DE OCTUBRE      
010011105ANTIOQUIA   MEDELLIN                      SE. ESC. PEDREGAL                       1000009520000085400000606COMUNA 6 DOCE DE OCTUBRE      
010011106ANTIOQUIA   MEDELLIN                      I.E. EL TRIUNFO SANTA TERESA            1000003870000029100000206COMUNA 6 DOCE DE OCTUBRE      
010011201ANTIOQUIA   MEDELLIN                      I.E.MAESTRO FERNANDO BOTERO             1000067580000543500003506COMUNA 6 DOCE DE OCTUBRE      
010011202ANTIOQUIA   MEDELLIN                      I.E.ALFREDO COCK ARANGO                 1000063320000504700003306COMUNA 6 DOCE DE OCTUBRE      
010011203ANTIOQUIA   MEDELLIN                      SEC.ESC.SAN MARTIN DE PORRES            1000038110000279400001906COMUNA 6 DOCE DE OCTUBRE      
010011204ANTIOQUIA   MEDELLIN                      I.E. KENNEDY                            1000074750000525000003606COMUNA 6 DOCE DE OCTUBRE      
010011205ANTIOQUIA   MEDELLIN                      SEC.CONCENTRACION EDUC.KENNEDY          1000028910000259900001606COMUNA 6 DOCE DE OCTUBRE      
010011206ANTIOQUIA   MEDELLIN                      I.E.JORGE ELIECER GAITAN(PPAL)          1000007110000042600000406COMUNA 6 DOCE DE OCTUBRE      
010011207ANTIOQUIA   MEDELLIN                      I.E.LA ESPERANZA                        1000006320000041600000306COMUNA 6 DOCE DE OCTUBRE      
010011301ANTIOQUIA   MEDELLIN                      I.E. SAN VICENTE DE PAUL                1000066650000537500003507COMUNA 7 ROBLEDO              
010011302ANTIOQUIA   MEDELLIN                      SEC.ESC. EL DIAMANTE                    1000067480000476000003307COMUNA 7 ROBLEDO              
010011303ANTIOQUIA   MEDELLIN                      I.E.EL DIAMANTE (SEDE BTO)              1000024320000234200001407COMUNA 7 ROBLEDO              
010011304ANTIOQUIA   MEDELLIN                      I.E.FE Y ALEGRIA VILLA DE LA C          1000081240000617700004107COMUNA 7 ROBLEDO              
010011305ANTIOQUIA   MEDELLIN                      I.E.FE Y ALEGRIA SAN JOSE               1000010270000062900000507COMUNA 7 ROBLEDO              
010011306ANTIOQUIA   MEDELLIN                      TECNOLOGICO DE ANTIOQUIA                1000016240000119600000807COMUNA 7 ROBLEDO              
010011401ANTIOQUIA   MEDELLIN                      I.E.MON. GERARDO VALENCIA CAN           1000017740000125500000907COMUNA 7 ROBLEDO              
010011402ANTIOQUIA   MEDELLIN                      I.E. JORGE ROBLEDO                      1000082100000657800004207COMUNA 7 ROBLEDO              
010011403ANTIOQUIA   MEDELLIN                      I.E.MARISCAL ROBLEDO                    1000040780000419600002407COMUNA 7 ROBLEDO              
010011404ANTIOQUIA   MEDELLIN                      SEC.ESC. SANTA MARGARITA                1000036760000259800001807COMUNA 7 ROBLEDO              
010011405ANTIOQUIA   MEDELLIN                      COLEGIO FERRINI                         1000010700000080500000607COMUNA 7 ROBLEDO              
010011406ANTIOQUIA   MEDELLIN                      I.E.CAMILO MORA CARRASQUILLA            1000006530000052400000407COMUNA 7 ROBLEDO              
010011501ANTIOQUIA   MEDELLIN                      I.E. JUAN DE DIOS CARVAJAL              1000056860000495200003108COMUNA 8 VILLA HERMOSA        
010011502ANTIOQUIA   MEDELLIN                      I.E. JUAN DE LA CRUZ POSADA             1000025700000200000001308COMUNA 8 VILLA HERMOSA        
010011503ANTIOQUIA   MEDELLIN                      I.E.JOSE CELESTINO MUTIS                1000009410000075700000508COMUNA 8 VILLA HERMOSA        
010011504ANTIOQUIA   MEDELLIN                      INST.METROPOLITANO (I.T.M)              1000002100000019600000208COMUNA 8 VILLA HERMOSA        
010011505ANTIOQUIA   MEDELLIN                      SEC.ESC.JULIA AGUDELO                   1000133390001009600006708COMUNA 8 VILLA HERMOSA        
010011506ANTIOQUIA   MEDELLIN                      SEC.ESC.NIÑO JESUS DE PRAGA             1000006260000043100000308COMUNA 8 VILLA HERMOSA        
010011507ANTIOQUIA   MEDELLIN                      I.E.SOL DEL ORIENTE                     1000006890000048600000408COMUNA 8 VILLA HERMOSA        
010011601ANTIOQUIA   MEDELLIN                      I.E. VILLA TURBAY                       1000022380000161100001108COMUNA 8 VILLA HERMOSA        
010011602ANTIOQUIA   MEDELLIN                      SEC.ESCUELA LAS ESTANCIAS               1000016120000119300000808COMUNA 8 VILLA HERMOSA        
010011603ANTIOQUIA   MEDELLIN                      SEC.ESC.SOR MARIA LUISA COURB           1000048030000356200002408COMUNA 8 VILLA HERMOSA        
010011604ANTIOQUIA   MEDELLIN                      I.E. SAN FRANCISCO DE ASIS              1000035100000284800001808COMUNA 8 VILLA HERMOSA        
010011605ANTIOQUIA   MEDELLIN                      ESC. REPUBLICA DEL PERU                 1000031430000260300001708COMUNA 8 VILLA HERMOSA        
010011701ANTIOQUIA   MEDELLIN                      I.E.GUADALUPANO LA SALLE                1000057450000458600003009COMUNA 9 BUENOS AIRES         
010011702ANTIOQUIA   MEDELLIN                      I.E. MERCEDITAS GOMEZ MARTINE           1000051480000379700002609COMUNA 9 BUENOS AIRES         
010011703ANTIOQUIA   MEDELLIN                      I.E. MANUEL JOSE CAICEDO                1000041160000342100002209COMUNA 9 BUENOS AIRES         
010011704ANTIOQUIA   MEDELLIN                      I.E. LA MILAGROSA                       1000113620000895500005809COMUNA 9 BUENOS AIRES         
010011801ANTIOQUIA   MEDELLIN                      I.E. LORETO GABRIELA GOMEZ CA           1000033500000276900001809COMUNA 9 BUENOS AIRES         
010011802ANTIOQUIA   MEDELLIN                      INST.EDUCATIVA FEDERICO OZANA           1000083190000727500004509COMUNA 9 BUENOS AIRES         
010011803ANTIOQUIA   MEDELLIN                      ESCUELA NORMAL SUPERIOR ANT.            1000039560000303900002009COMUNA 9 BUENOS AIRES         
010011804ANTIOQUIA   MEDELLIN                      SEC. ESC. JOSE DE SAN MARTIN            1000052860000422600002709COMUNA 9 BUENOS AIRES         
010011901ANTIOQUIA   MEDELLIN                      I.E. TULIO OSPINA                       1000076720000729100004310COMUNA 10 LA CANDELARIA       
010011902ANTIOQUIA   MEDELLIN                      SEC.ESC.AGUSTIN NIETO CABALLE           1000016540000129800000910COMUNA 10 LA CANDELARIA       
010011903ANTIOQUIA   MEDELLIN                      COLEGIO SALESIANO EL SUFRAGIO           1000099280000834300005210COMUNA 10 LA CANDELARIA       
010011904ANTIOQUIA   MEDELLIN                      I.E. CEFA                               1000091440000491100004010COMUNA 10 LA CANDELARIA       
010011905ANTIOQUIA   MEDELLIN                      I.E. HECTOR ABAD GOMEZ                  1000021880000601000002410COMUNA 10 LA CANDELARIA       
010012001ANTIOQUIA   MEDELLIN                      CENTRO COMERCIAL SAN DIEGO              1000107730000898400005610COMUNA 10 LA CANDELARIA       
010012002ANTIOQUIA   MEDELLIN                      ALCALDIA MUNICIPAL (SOTANO)             1000064340000841800004210COMUNA 10 LA CANDELARIA       
010012003ANTIOQUIA   MEDELLIN                      SENA                                    1000025860000390600001910COMUNA 10 LA CANDELARIA       
010012101ANTIOQUIA   MEDELLIN                      INSTITUTO JORGE ROBLEDO                 1000050790000435200002711COMUNA 11 LAURELES            
010012102ANTIOQUIA   MEDELLIN                      INST.EDUC. MATER DEI                    1000075430000567000003811COMUNA 11 LAURELES            
010012103ANTIOQUIA   MEDELLIN                      I.E. MARCO FIDEL SUAREZ                 1000062580000645300003611COMUNA 11 LAURELES            
010012104ANTIOQUIA   MEDELLIN                      COLEGIO CALASANZ FEMENINO               1000014570000112900000811COMUNA 11 LAURELES            
010012201ANTIOQUIA   MEDELLIN                      SEC.ESC. AGRUPACION COLOMBIA            1000078670000589700003911COMUNA 11 LAURELES            
010012202ANTIOQUIA   MEDELLIN                      I.E. LUCRECIO JARAMILLO VELEZ           1000119780000882100005911COMUNA 11 LAURELES            
010012203ANTIOQUIA   MEDELLIN                      COLEGIO BETLEHEMITAS                    1000010720000073600000611COMUNA 11 LAURELES            
010012204ANTIOQUIA   MEDELLIN                      COL.SAN IGNACIO (SEC.INFANTIL)          1000005220000054300000411COMUNA 11 LAURELES            
010012301ANTIOQUIA   MEDELLIN                      SEC. ESC. SANTA LUCIA                   1000075170000553900003712COMUNA 12 LA AMERICA          
010012302ANTIOQUIA   MEDELLIN                      I.E. CONCEJO DE MEDELLIN                1000133080001073100006812COMUNA 12 LA AMERICA          
010012303ANTIOQUIA   MEDELLIN                      INST EDUC. LA PIEDAD                    1000055740000400300002812COMUNA 12 LA AMERICA          
010012304ANTIOQUIA   MEDELLIN                      I.E.SANTA ROSA DE LIMA                  1000003600000032500000212COMUNA 12 LA AMERICA          
010012401ANTIOQUIA   MEDELLIN                      I.E. RAFAEL URIBE URIBE                 1000065210000474600003212COMUNA 12 LA AMERICA          
010012402ANTIOQUIA   MEDELLIN                      SEC.ESC.RAFAEL URIBE URIBE              1000022740000221000001312COMUNA 12 LA AMERICA          
010012403ANTIOQUIA   MEDELLIN                      SEC. ESC. PEDRO DE CASTRO               1000089820000716100004612COMUNA 12 LA AMERICA          
010012404ANTIOQUIA   MEDELLIN                      I.E.FRANCISCO ANTONIO ZEA               1000013060000105000000712COMUNA 12 LA AMERICA          
010012405ANTIOQUIA   MEDELLIN                      I.E AMERICA                             1000004380000033500000312COMUNA 12 LA AMERICA          
010012406ANTIOQUIA   MEDELLIN                      I.E.SAMUEL BARRIENTOS                   1000002290000018600000212COMUNA 12 LA AMERICA          
010012501ANTIOQUIA   MEDELLIN                      I.E. BLANQUIZAL (EN ADMON) CR           1000021770000168200001113COMUNA 13 SAN JAVIER          
010012502ANTIOQUIA   MEDELLIN                      SEC. ESC. REPUBLICA DE PANAMA           1000035400000274900001813COMUNA 13 SAN JAVIER          
010012503ANTIOQUIA   MEDELLIN                      I.E JUAN XXIII                          1000008100000065300000513COMUNA 13 SAN JAVIER          
010012504ANTIOQUIA   MEDELLIN                      SEC. ESC. MONSEÑOR PERDOMO              1000089230000386400003713COMUNA 13 SAN JAVIER          
010012505ANTIOQUIA   MEDELLIN                      SEC.ESC.PIO XII                         1000035820000570100002713COMUNA 13 SAN JAVIER          
010012506ANTIOQUIA   MEDELLIN                      I.E.STELLA VELEZ LONDOÑO                1000006250000044600000413COMUNA 13 SAN JAVIER          
010012601ANTIOQUIA   MEDELLIN                      I.E.LA INDEPENDENCIA                    1000091060000667200004513COMUNA 13 SAN JAVIER          
010012602ANTIOQUIA   MEDELLIN                      SEC.ESC.EL SOCORRO                      1000047460000396300002513COMUNA 13 SAN JAVIER          
010012603ANTIOQUIA   MEDELLIN                      SEC.ESC.MIXTA BETANIA                   1000052100000373300002613COMUNA 13 SAN JAVIER          
010012604ANTIOQUIA   MEDELLIN                      I.E.EL CORAZON                          1000006620000049500000413COMUNA 13 SAN JAVIER          
010012605ANTIOQUIA   MEDELLIN                      I.E.EDUARDO SANTOS                      1000006480000043300000413COMUNA 13 SAN JAVIER          
010012606ANTIOQUIA   MEDELLIN                      I.E.CARLOS VIECO                        1000006960000058000000413COMUNA 13 SAN JAVIER          
010012701ANTIOQUIA   MEDELLIN                      COL.SANTA MARIA DEL ROSARIO             1000047030000369900002414COMUNA 14 EL POBLADO          
010012702ANTIOQUIA   MEDELLIN                      COL.MARYMOUNT                           1000017770000136200000914COMUNA 14 EL POBLADO          
010012703ANTIOQUIA   MEDELLIN                      COLEGIO PALERMO DE SAN JOSE             1000086790000647900004314COMUNA 14 EL POBLADO          
010012801ANTIOQUIA   MEDELLIN                      POLITECNICO JAIME ISAZA CADAVI          1000045620000398600002514COMUNA 14 EL POBLADO          
010012802ANTIOQUIA   MEDELLIN                      I.E.INEM JOSE FELIX DE RESTREP          1000047170000771900003614COMUNA 14 EL POBLADO          
010012803ANTIOQUIA   MEDELLIN                      UNIVERSIDAD EAFIT                       1000119230000635700005214COMUNA 14 EL POBLADO          
010012804ANTIOQUIA   MEDELLIN                      COL DE LA CIA DE MARIA LA ENSE          10000037900000274000002                                
010012901ANTIOQUIA   MEDELLIN                      SEC.ESC.SANTISIMA TRINIDAD              1000038340000306000002015COMUNA 15 GUAYABAL            
010012902ANTIOQUIA   MEDELLIN                      I.E.BENJAMIN HERRERA                    1000037810000297000002015COMUNA 15 GUAYABAL            
010012903ANTIOQUIA   MEDELLIN                      I.E.CRISTO REY                          1000076530000627400004015COMUNA 15 GUAYABAL            
010012904ANTIOQUIA   MEDELLIN                      SECCION ESC REPUBLICA DE COSTA RICA     1000048740000391200002515COMUNA 15 GUAYABAL            
010012905ANTIOQUIA   MEDELLIN                      SEC.ESC.LA COLINA                       1000023750000198500001315COMUNA 15 GUAYABAL            
010012906ANTIOQUIA   MEDELLIN                      I.E. LA SALLE CAMPO AMOR                1000011770000091100000615COMUNA 15 GUAYABAL            
010013001ANTIOQUIA   MEDELLIN                      I.E. FATIMA NUTIBARA                    1000049740000385400002516COMUNA 16 BELEN               
010013002ANTIOQUIA   MEDELLIN                      ESC.SOFIA OSPINA DE NAVARRO             1000045550000367900002416COMUNA 16 BELEN               
010013003ANTIOQUIA   MEDELLIN                      I.E.JUAN MARIA CESPEDES                 1000121780001003000006316COMUNA 16 BELEN               
010013004ANTIOQUIA   MEDELLIN                      I.E. GUILLERMO VALENCIA                 1000045810000358400002416COMUNA 16 BELEN               
010013005ANTIOQUIA   MEDELLIN                      UNID.DEPORTIVA ANDRES ESCOBAR           1000005350000048600000316COMUNA 16 BELEN               
010013006ANTIOQUIA   MEDELLIN                      LICEO SAN RAFAEL                        1000014500000111600000816COMUNA 16 BELEN               
010013101ANTIOQUIA   MEDELLIN                      SEC.ESC.JACKELINE KENNEDY               1000039370000283800002016COMUNA 16 BELEN               
010013102ANTIOQUIA   MEDELLIN                      I.E.JOSE MARIA BERNAL                   1000050710000402500002616COMUNA 16 BELEN               
010013103ANTIOQUIA   MEDELLIN                      INST.SAN CARLOS DE LA SALLE             1000070230000563600003616COMUNA 16 BELEN               
010013104ANTIOQUIA   MEDELLIN                      I.E.ALCALDIA DE MEDELLIN                1000075450000605600003916COMUNA 16 BELEN               
010013105ANTIOQUIA   MEDELLIN                      COLEGIO PADRE MANYANET                  1000013990000109700000816COMUNA 16 BELEN               
010013106ANTIOQUIA   MEDELLIN                      I.E.CAMPILLAS DEL ROSARIO               1000006210000041300000316COMUNA 16 BELEN               
010013201ANTIOQUIA   MEDELLIN                      I.E.RAMON GIRALDO CEBALLOS              1000071610000545700003616COMUNA 16 BELEN               
010013202ANTIOQUIA   MEDELLIN                      UNIVERSIDAD DE MEDELLIN                 1000087140000755400004616COMUNA 16 BELEN               
010013203ANTIOQUIA   MEDELLIN                      I.E HORACIO MUÑOZ SUESCUN               1000055850000451600002916COMUNA 16 BELEN               
010013204ANTIOQUIA   MEDELLIN                      I.E.REPUBLICA DE VENEZUELA              1000045310000371400002416COMUNA 16 BELEN               
010013205ANTIOQUIA   MEDELLIN                      I.E.ROBERTO BELARMINO                   1000004520000038600000316COMUNA 16 BELEN               
010019001ANTIOQUIA   MEDELLIN                      ESTADIO ATANASIO GIRARDOT               40000003600065195000083                                
010019002ANTIOQUIA   MEDELLIN                      PLAZA MAYOR CTRO EXPOS. CONVEN          40006742000000007000085                                
010019801ANTIOQUIA   MEDELLIN                      RECLU. DE MUJERES PEDREGAL ME           10000011400000075000001                                
010019802ANTIOQUIA   MEDELLIN                      ESTAB. CARCELARIO PEDREGAL ME           10000001800000106000001                                
010019803ANTIOQUIA   MEDELLIN                      CENTRO CARLOS LLERAS RESTREPO           10000001800000032000001                                
010019903ANTIOQUIA   MEDELLIN                      ALTAVISTA                               1000039760000308900002017CORREGIMIENTO ALTAVISTA       
010019910ANTIOQUIA   MEDELLIN                      SAN ANTONIO DE PRADO FE Y ALE           1000036640000277700001918CORR.  SAN ANTONIO DE PRADO   
010019917ANTIOQUIA   MEDELLIN                      PALMITAS                                1000011830000113200000719CORREGIMIENTO PALMITAS        
010019933ANTIOQUIA   MEDELLIN                      SANTA ELENA                             1000028540000268500001621CORREGIMIENTO SANTA ELENA     
0100199A1ANTIOQUIA   MEDELLIN                      SAN ANTONIO DE PRADO A                  1000118660000479600004818CORR.  SAN ANTONIO DE PRADO   
0100199A2ANTIOQUIA   MEDELLIN                      I.E.MANUEL DE J.BETANCUR                1000059290001005100004618CORR.  SAN ANTONIO DE PRADO   
0100199B1ANTIOQUIA   MEDELLIN                      SAN CRISTOBAL A                         1000105670000526900004520CORREGIMIENTO SAN CRISTOBAL   
0100199B2ANTIOQUIA   MEDELLIN                      SAN CRISTOBAL B                         1000062440000870100004320CORREGIMIENTO SAN CRISTOBAL   
0100199B3ANTIOQUIA   MEDELLIN                      SAN CRISTOBAL C                         10000062900000355000003                                
010040000ANTIOQUIA   ABEJORRAL                     PUESTO CABECERA MUNICIPAL               10000636400006671000037                                
010049801ANTIOQUIA   ABEJORRAL                     CARCEL MUNICIPAL                        10000000000000006000001                                
010049901ANTIOQUIA   ABEJORRAL                     PANTANILLO                              10000046200000511000003                                
010049909ANTIOQUIA   ABEJORRAL                     CHAGUALAL                               10000024900000315000002                                
010049911ANTIOQUIA   ABEJORRAL                     GUAICO GRANDE                           10000015900000243000002                                
010049917ANTIOQUIA   ABEJORRAL                     PORTUGAL                                10000006700000087000001                                
010049940ANTIOQUIA   ABEJORRAL                     PURIMA                                  10000010800000104000001                                
010070000ANTIOQUIA   ABRIAQUI                      PUESTO CABECERA MUNICIPAL               10000068100000784000005                                
010079905ANTIOQUIA   ABRIAQUI                      LA ANTIGUA                              10000023100000298000002                                
010100000ANTIOQUIA   ALEJANDRIA                    PUESTO CABECERA MUNICIPAL               10000229100002378000014                                
010130000ANTIOQUIA   AMAGA                         PUESTO CABECERA MUNICIPAL               10001007900009667000056                                
010139801ANTIOQUIA   AMAGA                         CARCEL MUNICIPAL                        10000000200000006000001                                
010139903ANTIOQUIA   AMAGA                         EL CEDRO                                10000036800000350000003                                
010139905ANTIOQUIA   AMAGA                         LA CLARITA                              10000098100000820000006                                
010160000ANTIOQUIA   AMALFI                        PUESTO CABECERA MUNICIPAL               10000810800008572000048                                
010169801ANTIOQUIA   AMALFI                        CARCEL                                  10000000000000022000001                                
010169910ANTIOQUIA   AMALFI                        PORTACHUELO                             10000027200000319000002                                
010190101ANTIOQUIA   ANDES                         COLISEO PEDRO ANTONIO RPO ESCO          10000136900001622000009                                
010190102ANTIOQUIA   ANDES                         COL SAN JUAN DE LOS ANDES               10000291000002821000017                                
010190103ANTIOQUIA   ANDES                         CERUR LA AGUADA                         10000004000000013000001                                
010190201ANTIOQUIA   ANDES                         COL MARCO FIDEL SUAREZ                  10000245600002794000015                                
010190202ANTIOQUIA   ANDES                         ESC LUIS GUTIERREZ                      10000201000001663000011                                
010190203ANTIOQUIA   ANDES                         PLACA POLIDEPORTIVA                     10000008100000075000001                                
010199001ANTIOQUIA   ANDES                         COLEGIO JUAN DE DIOS URIBE              40000368200004452000011                                
010199801ANTIOQUIA   ANDES                         CARCEL                                  10000001300000077000001                                
010199901ANTIOQUIA   ANDES                         BUENOS AIRES                            10000053400000619000004                                
010199903ANTIOQUIA   ANDES                         LA CHAPARRALA                           10000014000000146000001                                
010199905ANTIOQUIA   ANDES                         SAN JOSE                                10000040800000470000003                                
010199906ANTIOQUIA   ANDES                         SAN BARTOLO                             10000014400000148000001                                
010199909ANTIOQUIA   ANDES                         SANTA INES                              10000058500000731000004                                
010199913ANTIOQUIA   ANDES                         SANTA RITA                              10000110000001200000007                                
010199917ANTIOQUIA   ANDES                         TAPARTO                                 10000101900001081000006                                
010199923ANTIOQUIA   ANDES                         SAN PERUCHITO                           10000046600000524000003                                
010220000ANTIOQUIA   ANGELOPOLIS                   PUESTO CABECERA MUNICIPAL               10000238100002591000015                                
010229901ANTIOQUIA   ANGELOPOLIS                   ESTACION ANGELOPOLIS                    10000042100000400000003                                
010229970ANTIOQUIA   ANGELOPOLIS                   SANTA ANA                               10000003000000043000001                                
010250000ANTIOQUIA   ANGOSTURA                     PUESTO CABECERA MUNICIPAL               10000400000004280000024                                
010259906ANTIOQUIA   ANGOSTURA                     CANOAS                                  10000025700000262000002                                
010259912ANTIOQUIA   ANGOSTURA                     LA MONTAÑITA                            10000017900000170000001                                
010259915ANTIOQUIA   ANGOSTURA                     LLANOS DE CUIVA                         10000008300000071000001                                
010280000ANTIOQUIA   ANORI                         PUESTO CABECERA MUNICIPAL               10000422000004732000026                                
010289801ANTIOQUIA   ANORI                         CARCEL MUNICIPAL                        10000000000000006000001                                
010289903ANTIOQUIA   ANORI                         LA MESETA                               10000012600000207000001                                
010289905ANTIOQUIA   ANORI                         LIBERIA                                 10000025500000394000002                                
010289909ANTIOQUIA   ANORI                         EL ROBLE                                10000035700000400000003                                
010289913ANTIOQUIA   ANORI                         MADRE SECA                              10000010300000178000001                                
010289915ANTIOQUIA   ANORI                         EL CARMIN                               10000009200000161000001                                
010289916ANTIOQUIA   ANORI                         LA CASITA                               10000009300000138000001                                
010289937ANTIOQUIA   ANORI                         SANTO DOMINGO                           10000005700000080000001                                
010310000ANTIOQUIA   ANTIOQUIA                     PUESTO CABECERA MUNICIPAL               10000905800009130000052                                
010319801ANTIOQUIA   ANTIOQUIA                     CARCEL                                  10000000400000063000001                                
010319901ANTIOQUIA   ANTIOQUIA                     CATIVO                                  10000007600000073000001                                
010319904ANTIOQUIA   ANTIOQUIA                     EL PESCADO                              10000018000000227000002                                
010319905ANTIOQUIA   ANTIOQUIA                     LAURELES                                10000021900000304000002                                
010319907ANTIOQUIA   ANTIOQUIA                     LAS AZULES                              10000008700000117000001                                
010319909ANTIOQUIA   ANTIOQUIA                     TONUSCO ARRIBA                          10000015700000198000002                                
010319915ANTIOQUIA   ANTIOQUIA                     SABANAS                                 10000017800000224000002                                
010340000ANTIOQUIA   ANZA                          PUESTO CABECERA MUNICIPAL               10000174800001899000011                                
010349901ANTIOQUIA   ANZA                          GUINTAR                                 10000078700000927000005                                
010349930ANTIOQUIA   ANZA                          LA CEJITA                               10000022200000243000002                                
010350101ANTIOQUIA   APARTADO                      I.E ALFONSO LOPEZ                       1000040180000368100002201COMUNA 1 BERNARDO JARAMILLO   
010350102ANTIOQUIA   APARTADO                      I.E. POLICARPA SALAVARRIETA             1000043500000360200002301COMUNA 1 BERNARDO JARAMILLO   
010350103ANTIOQUIA   APARTADO                      I. E. LA PAZ                            1000020940000164400001101COMUNA 1 BERNARDO JARAMILLO   
010350104ANTIOQUIA   APARTADO                      I.E LA PAZ "S 20 DE ENERO"              1000000990000007800000102COMUNA 2 OCHO DE FEBRERO      
010350105ANTIOQUIA   APARTADO                      I. E. SAN FRANCISCO DE ASIS             1000045610000408200002502COMUNA 2 OCHO DE FEBRERO      
010350106ANTIOQUIA   APARTADO                      I. E. SAN PEDRO CLAVER                  1000033790000351500002002COMUNA 2 OCHO DE FEBRERO      
010350107ANTIOQUIA   APARTADO                      HOGAR INFANTIL LOS  GIRASOLES           10000202300001689000011                                
010350108ANTIOQUIA   APARTADO                      I. E. SANTA MARIA LA ANTIGUA            10000012800000103000001                                
010350201ANTIOQUIA   APARTADO                      I.E. HERACLIO MENA PADILLA              1000054610000257300002303COMUNA 3 PUEBLO NUEVO         
010350202ANTIOQUIA   APARTADO                      COLEGIO ADVENTISTA                      1000017760000354500001603COMUNA 3 PUEBLO NUEVO         
010350203ANTIOQUIA   APARTADO                      I.E  CADENA LAS PLAYAS                  1000001200000008000000104COMUNA 4 JOSE JOAQUIN VELEZ   
010350204ANTIOQUIA   APARTADO                      I. E. CAMPO ALEGRE                      1000008200000079100000504COMUNA 4 JOSE JOAQUIN VELEZ   
010350205ANTIOQUIA   APARTADO                      IE MADRE LAURA                          1000019010000271400001404COMUNA 4 JOSE JOAQUIN VELEZ   
010350206ANTIOQUIA   APARTADO                      COL COOPERATIVO                         1000024520000386600001804COMUNA 4 JOSE JOAQUIN VELEZ   
010350207ANTIOQUIA   APARTADO                      IE JOSE JOAQUIN VELEZ                   10000439200004126000025                                
010350208ANTIOQUIA   APARTADO                      I.E JOSE CELESTINO MUTIS                10000162900001512000009                                
010359001ANTIOQUIA   APARTADO                      COLIS.ANTONIO ROLDAN BETANCUR           40000447100003710000011                                
010359801ANTIOQUIA   APARTADO                      CARCEL                                  10000001100000103000001                                
010359915ANTIOQUIA   APARTADO                      CHURIDO                                 1000006070000066400000405CORREGIMIENTO CHURIDO PUEBLO  
010359921ANTIOQUIA   APARTADO                      PUERTO GIRON                            1000002910000029500000206CORREGIMIENTO PUERTO GIRON    
010359925ANTIOQUIA   APARTADO                      SAN JOSE DE APARTADO                    1000005160000081300000407CORR SAN JOSE DE APARTADO     
010359950ANTIOQUIA   APARTADO                      EL REPOSO                               1000021230000187400001208CORREGIMIENTO EL REPOSO       
010370000ANTIOQUIA   ARBOLETES                     PUESTO CABECERA MUNICIPAL               10000617900006058000035                                
010379903ANTIOQUIA   ARBOLETES                     BUENOS AIRES                            10000053200000638000004                                
010379905ANTIOQUIA   ARBOLETES                     EL CARMELO                              10000058900000726000004                                
010379906ANTIOQUIA   ARBOLETES                     SANTAFE DE LAS PLATAS                   10000054200000669000004                                
010379908ANTIOQUIA   ARBOLETES                     LAS NARANJITAS                          10000032300000412000003                                
010379912ANTIOQUIA   ARBOLETES                     GUADUAL                                 10000073300000907000005                                
010379920ANTIOQUIA   ARBOLETES                     LA CANDELARIA                           10000079100000932000005                                
010379975ANTIOQUIA   ARBOLETES                     LA TRINIDAD                             10000083000000988000006                                
010379980ANTIOQUIA   ARBOLETES                     PAJILLAL                                10000031200000343000002                                
010390000ANTIOQUIA   ARGELIA                       PUESTO CABECERA MUNICIPAL               10000277900002985000017                                
010399904ANTIOQUIA   ARGELIA                       EL PITAL                                10000007800000115000001                                
010399907ANTIOQUIA   ARGELIA                       EL ROSARIO SAN JULIAN                   10000012300000131000001                                
010399910ANTIOQUIA   ARGELIA                       GUADUALITO                              10000004200000070000001                                
010399920ANTIOQUIA   ARGELIA                       LA MARGARITA                            10000003100000038000001                                
010399925ANTIOQUIA   ARGELIA                       MESONES                                 10000002100000024000001                                
010399980ANTIOQUIA   ARGELIA                       SAN AGUSTIN                             10000010600000159000001                                
010400000ANTIOQUIA   ARMENIA                       PUESTO CABECERA MUNICIPAL               10000198300002202000012                                
010409901ANTIOQUIA   ARMENIA                       LA HERRADURA                            10000030700000316000002                                
010430101ANTIOQUIA   BARBOSA                       PBRO. LUIS EDUARDO PEREZ MOLIN          10000200200002149000012                                
010430102ANTIOQUIA   BARBOSA                       INST. EDUC. MANUEL JOSE CAICED          10000378600003692000022                                
010430103ANTIOQUIA   BARBOSA                       CASA DE LA CULTURA JOAQUIN EMI          10000241700001420000011                                
010430104ANTIOQUIA   BARBOSA                       UNIDAD DEPORTIVA LOS BUCAROS            10000038400000367000003                                
010430201ANTIOQUIA   BARBOSA                       BIBLIOTECA ISOLDA ECHAVARRIA M          10000179500002236000012                                
010430202ANTIOQUIA   BARBOSA                       COL. COOPERATIVO SIMÓN BOLIVAR          10000198200001370000010                                
010430203ANTIOQUIA   BARBOSA                       C.A.S DIEGO FERNANDEZ BARBOSA           10000439100000626000015                                
010430204ANTIOQUIA   BARBOSA                       INST. EDUC. LUIS EDUARDO ARIAS          10000136100005727000021                                
010439801ANTIOQUIA   BARBOSA                       CARCEL                                  10000000100000036000001                                
010439901ANTIOQUIA   BARBOSA                       EL HATILLO                              1000023410000214700001301CORREGIMIENTO EL HATILLO      
010460000ANTIOQUIA   BELMIRA                       PUESTO CABECERA MUNICIPAL               10000145500001494000009                                
010469901ANTIOQUIA   BELMIRA                       LABORES                                 10000019100000254000002                                
010469903ANTIOQUIA   BELMIRA                       LAS PLAYAS                              10000068800000705000004                                
010469905ANTIOQUIA   BELMIRA                       QUEBRADITAS                             10000002400000054000001                                
010490101ANTIOQUIA   BELLO                         I.E. ALBERTO DIAZ MUÑOZ                 1000056370000456600002901COMUNA 1 PARIS                
010490102ANTIOQUIA   BELLO                         I.E ALB. DIAZ MUÑOZ SECC.PRAD           1000011940000086200000601COMUNA 1 PARIS                
010490103ANTIOQUIA   BELLO                         CENTRO EDUCAT RAQUEL JARAMILLO          1000040860000332200002101COMUNA 1 PARIS                
010490104ANTIOQUIA   BELLO                         IE BARRIO PARIS                         10000198100001668000011                                
010490201ANTIOQUIA   BELLO                         I.E. ATANASIO GIRARDOT                  1000039230001115900004302COMUNA 2 MADERA               
010490202ANTIOQUIA   BELLO                         COL. PARROQ. SAN FCO DE ASIS            1000138430000480100005302COMUNA 2 MADERA               
010490203ANTIOQUIA   BELLO                         COL SAN BUENAVENTURA                    1000036770000313000002002COMUNA 2 MADERA               
010490204ANTIOQUIA   BELLO                         I.E. TOMAS CADAVID RESTREPO             1000047810000413600002602COMUNA 2 MADERA               
010490301ANTIOQUIA   BELLO                         COLEGIO LA SALLE                        1000074440000564700003703COMUNA 3 SANTA ANA            
010490302ANTIOQUIA   BELLO                         I.E. FERNANDO VELEZ                     1000073220000528700003605COMUNA 5 LA CUMBRE            
010490303ANTIOQUIA   BELLO                         I.E. LA PRIMAVERA                       1000032970000265800001705COMUNA 5 LA CUMBRE            
010490304ANTIOQUIA   BELLO                         I.E. NAZARETH                           10000348100003456000020                                
010490305ANTIOQUIA   BELLO                         I.E. CARLOS PERES SEDE ROSALIA          10000010100000084000001                                
010490401ANTIOQUIA   BELLO                         INST. UNIVERSITARIA MARCO FIDEL SUAREZ  1000047380000453100002704COMUNA 4 SUAREZ               
010490402ANTIOQUIA   BELLO                         COL JESUS DE LA BUENA ESPERANZ          1000070130000896300004604COMUNA 4 SUAREZ               
010490403ANTIOQUIA   BELLO                         IE SAGRADO CORAZON                      10000204600004304000018                                
010490501ANTIOQUIA   BELLO                         IE JORGE ELIECER GAITAN                 1000113350000706400005204COMUNA 4 SUAREZ               
010490502ANTIOQUIA   BELLO                         I.E. SANTA CATALINA                     1000044000000328900002204COMUNA 4 SUAREZ               
010490503ANTIOQUIA   BELLO                         I.E. LA MILAGROSA                       1000040040000338700002104COMUNA 4 SUAREZ               
010490601ANTIOQUIA   BELLO                         I.E. HERNAN VILLA BAENA                 1000076200000393500003306COMUNA 6 BELLAVISTA           
010490602ANTIOQUIA   BELLO                         I.E. GILBERTO ECHEVERRI MEJIA           1000033050000269900001707COMUNA 7 ALTOS DE NIQUIA      
010490603ANTIOQUIA   BELLO                         I.E. CIAL ANTONIO ROLDAN                1000054190000164200002007COMUNA 7 ALTOS DE NIQUIA      
010490604ANTIOQUIA   BELLO                         IE VILLA DEL SOL SEC 1                  10000298400004091000020                                
010490605ANTIOQUIA   BELLO                         IE VILLA DEL SOL SEC 2                  10000014000000105000001                                
010490606ANTIOQUIA   BELLO                         IE JOSEFA CAMPOS                        10000149700003554000015                                
010490701ANTIOQUIA   BELLO                         I.E. CONCEJO DE BELLO                   1000047190000369300002408COMUNA 8 NIQUIA               
010490702ANTIOQUIA   BELLO                         I.E FE Y ALEGRIA NUEVA GENERAC          1000054430000193600002108COMUNA 8 NIQUIA               
010490703ANTIOQUIA   BELLO                         BETSABE ESPINAL                         1000023340000200200001308COMUNA 8 NIQUIA               
010490704ANTIOQUIA   BELLO                         I.E. NAVARRA                            1000021850000176000001209COMUNA 9 GUASIMALITO          
010490705ANTIOQUIA   BELLO                         COL NUESTRA SEÑORA DE CHIQUINQ          10000261000004189000020                                
010490801ANTIOQUIA   BELLO                         I.E. LAS VEGAS                          1000022950000181200001210COMUNA 10 FONTIDUEÑO          
010490802ANTIOQUIA   BELLO                         I.E FONTIDUEÑO JAIME ARANGO R           1000037440000303500002010COMUNA 10 FONTIDUEÑO          
010490803ANTIOQUIA   BELLO                         I.E FEDERICO SIERRA ARANGO              1000069740000511400003511COMUNA 11 ZAMORA              
010490804ANTIOQUIA   BELLO                         I.E. LA GABRIELA                        1000032120000260300001711COMUNA 11 ZAMORA              
010490805ANTIOQUIA   BELLO                         IE ZAMORA CENTENARIO                    10000012800000099000001                                
010499001ANTIOQUIA   BELLO                         INST.EDUCATIVA ANDRES BELLO             40002257300002123000032                                
010499002ANTIOQUIA   BELLO                         CEDENORTE INSTITUTO TECNOLOGICO         40000482100022338000035                                
010499801ANTIOQUIA   BELLO                         CARCEL NACIONAL DE BELLAVISTA           10000006600000497000002                                
010499980ANTIOQUIA   BELLO                         SAN FELIX                               1000011990000116000000712COMUNA 12 SAN FELIX           
010520000ANTIOQUIA   BETANIA                       PUESTO CABECERA MUNICIPAL               10000370100004347000023                                
010529940ANTIOQUIA   BETANIA                       LA LIBIA                                10000017400000226000002                                
010550000ANTIOQUIA   BETULIA                       PUESTO CABECERA MUNICIPAL               10000460900005076000028                                
010559901ANTIOQUIA   BETULIA                       ALTAMIRA                                10000098700001152000007                                
010559905ANTIOQUIA   BETULIA                       CANGREJO                                10000007600000077000001                                
010559909ANTIOQUIA   BETULIA                       LUCIANO RESTREPO                        10000048900000575000004                                
010559985ANTIOQUIA   BETULIA                       YERBAL                                  10000023400000301000002                                
010580101ANTIOQUIA   BOLIVAR                       I.EDU. SAN JOSE DEL CITARA              10000268300002208000014                                
010580102ANTIOQUIA   BOLIVAR                       COLISEO CUBIERTO                        10000483000000850000017                                
010580201ANTIOQUIA   BOLIVAR                       I.EDUCATIVA JOSE MARIA HERRAN           10000062900004975000016                                
010580202ANTIOQUIA   BOLIVAR                       I.E.MARIA AUXILIADORA                   10000257000003205000017                                
010589801ANTIOQUIA   BOLIVAR                       CARCEL                                  10000000200000032000001                                
010589901ANTIOQUIA   BOLIVAR                       ALFONSO LOPEZ                           10000043200000493000003                                
010589908ANTIOQUIA   BOLIVAR                       FARALLONES                              10000048400000562000003                                
010589950ANTIOQUIA   BOLIVAR                       LA LINDA                                10000018900000181000002                                
010610000ANTIOQUIA   BURITICA                      PUESTO CABECERA MUNICIPAL               10000246300002745000015                                
010619901ANTIOQUIA   BURITICA                      URARCO                                  10000011800000159000001                                
010619903ANTIOQUIA   BURITICA                      EL NARANJO                              10000016100000200000002                                
010619904ANTIOQUIA   BURITICA                      GUARCO                                  10000006900000078000001                                
010619905ANTIOQUIA   BURITICA                      TABACAL                                 10000043500000521000003                                
010619913ANTIOQUIA   BURITICA                      LA ANGELINA                             10000008700000112000001                                
010620000ANTIOQUIA   BRICEÑO                       PUESTO CABECERA MUNICIPAL               10000209000002416000013                                
010629917ANTIOQUIA   BRICEÑO                       BUENAVISTA                              10000005800000081000001                                
010629920ANTIOQUIA   BRICEÑO                       BERLIN                                  10000012500000173000001                                
010629922ANTIOQUIA   BRICEÑO                       CHORRILLOS                              10000008600000127000001                                
010629925ANTIOQUIA   BRICEÑO                       EL ANIME                                10000001800000039000001                                
010629930ANTIOQUIA   BRICEÑO                       EL ROBLAL                               10000018000000237000002                                
010629940ANTIOQUIA   BRICEÑO                       CHIRI                                   10000005900000085000001                                
010629950ANTIOQUIA   BRICEÑO                       LAS AURAS                               10000023900000375000002                                
010629960ANTIOQUIA   BRICEÑO                       MORAVIA                                 10000008000000109000001                                
010640000ANTIOQUIA   CACERES                       PUESTO CABECERA MUNICIPAL               10000378200004421000024                                
010649901ANTIOQUIA   CACERES                       GUARUMO                                 10000153300001692000010                                
010649905ANTIOQUIA   CACERES                       EL JARDIN                               10000256100002328000014                                
010649907ANTIOQUIA   CACERES                       MANIZALES                               10000031100000428000003                                
010649913ANTIOQUIA   CACERES                       PUERTO BELGICA                          10000072800000843000005                                
010649929ANTIOQUIA   CACERES                       PIAMONTE                                10000055600000837000004                                
010670000ANTIOQUIA   CAICEDO                       PUESTO CABECERA MUNICIPAL               10000279400003210000017                                
010679923ANTIOQUIA   CAICEDO                       LA SALAZAR                              10000012400000148000001                                
010700101ANTIOQUIA   CALDAS                        ESC. SANTA MARIA GORETTI                10000386300003998000023                                
010700102ANTIOQUIA   CALDAS                        LICEO JOSE MARIA BERNAL                 10000447300003983000024                                
010700103ANTIOQUIA   CALDAS                        I.E.GABRIEL ECHAVARRIA                  10000188900002084000012                                
010700104ANTIOQUIA   CALDAS                        I.E. JOAQUIN ARISTIZABAL                10000931900000226000027                                
010700105ANTIOQUIA   CALDAS                        CENTRO INTEGRACION CIUDADANA            10000054800000458000003                                
010700201ANTIOQUIA   CALDAS                        ESC. FEDERICO ANGEL                     10000244200003590000018                                
010700202ANTIOQUIA   CALDAS                        ESC. MARIA AUXILIADORA                  10000703300003762000031                                
010700203ANTIOQUIA   CALDAS                        I.E. SANTA INES                         10000071800000566000004                                
010700204ANTIOQUIA   CALDAS                        PARQUE HABITAT DEL SUR                  10000141900002570000012                                
010700205ANTIOQUIA   CALDAS                        IE PEDRO LUIS ALVAREZ C                 10000062900004540000015                                
010700206ANTIOQUIA   CALDAS                        COLISEO                                 10000003800004221000013                                
010730000ANTIOQUIA   CAMPAMENTO                    PUESTO CABECERA MUNICIPAL               10000279700003168000017                                
010739910ANTIOQUIA   CAMPAMENTO                    LA CHIQUITA                             10000012900000180000001                                
010739980ANTIOQUIA   CAMPAMENTO                    SOLITA                                  10000015100000252000002                                
010760000ANTIOQUIA   CAÑASGORDAS                   PUESTO CABECERA MUNICIPAL               10000508000005374000030                                
010769905ANTIOQUIA   CAÑASGORDAS                   CESTILLAL                               10000063000000690000004                                
010769909ANTIOQUIA   CAÑASGORDAS                   JUNTAS DE URAMITA                       10000025500000308000002                                
010769913ANTIOQUIA   CAÑASGORDAS                   LA BALSA                                10000010900000161000001                                
010769922ANTIOQUIA   CAÑASGORDAS                   SAN PASCUAL                             10000044800000604000003                                
010780000ANTIOQUIA   CARACOLI                      PUESTO CABECERA MUNICIPAL               10000214600002280000013                                
010789904ANTIOQUIA   CARACOLI                      CASCARON                                10000006800000077000001                                
010789909ANTIOQUIA   CARACOLI                      EL BAGRE                                10000004500000087000001                                
010789913ANTIOQUIA   CARACOLI                      LA CORTADA                              10000004400000082000001                                
010790000ANTIOQUIA   CARAMANTA                     PUESTO CABECERA MUNICIPAL               10000191700002039000012                                
010799903ANTIOQUIA   CARAMANTA                     ALEGRIAS                                10000029200000373000002                                
010799907ANTIOQUIA   CARAMANTA                     BARRO BLANCO                            10000006900000073000001                                
010799915ANTIOQUIA   CARAMANTA                     CHIRAPOTO                               10000004900000075000001                                
010799937ANTIOQUIA   CARAMANTA                     SUCRE                                   10000014100000158000001                                
010800101ANTIOQUIA   CAREPA                        INST. EDUC. JOSE MARIA MUÑOZ            10000357100003326000020                                
010800102ANTIOQUIA   CAREPA                        INST. EDUCATIVA COLOMBIA                10000450800001683000018                                
010800103ANTIOQUIA   CAREPA                        CREM (CENTRO DE RECURSOS EDUCA          10000095000000974000006                                
010800201ANTIOQUIA   CAREPA                        I.E. LICEO LUIS CARLOS GALAN S          10000250100005113000022                                
010800202ANTIOQUIA   CAREPA                        I.E. ACAIDANA                           10000246700002676000015                                
010800203ANTIOQUIA   CAREPA                        I.E. J.M.M SEDE SAN MARINO              10000256400001309000011                                
010800204ANTIOQUIA   CAREPA                        COLISEO CUBIERTO                        10000122500002921000012                                
010809920ANTIOQUIA   CAREPA                        EL SILENCIO                             10000072600000940000005                                
010809930ANTIOQUIA   CAREPA                        PIEDRAS BLANCAS                         10000114600001436000008                                
010809970ANTIOQUIA   CAREPA                        ZUNGO EMBARCADERO                       10000118800001569000008                                
010820101ANTIOQUIA   CARMEN DE VIBORAL             COLISEO MUNICIPAL                       10000383700005104000026                                
010820102ANTIOQUIA   CARMEN DE VIBORAL             CENTRO DE CONVENCIONES                  10000492900001186000018                                
010820201ANTIOQUIA   CARMEN DE VIBORAL             CASA DE LA CULTURA                      10000391700005098000026                                
010820202ANTIOQUIA   CARMEN DE VIBORAL             I.E. LA HORMIGUITA VIAJERA              10000347600004260000022                                
010829901ANTIOQUIA   CARMEN DE VIBORAL             LA ESPERANZA                            1000001530000015200000101CORREGIMIENTO LA ESPERANZA    
010829902ANTIOQUIA   CARMEN DE VIBORAL             ALTO GRANDE                             10000003100000024000001                                
010829903ANTIOQUIA   CARMEN DE VIBORAL             LA CHAPA                                1000004040000038400000302CORREGIMIENTO LA CHAPA        
010829904ANTIOQUIA   CARMEN DE VIBORAL             SANTA RITA                              1000000370000006000000103CORREGIMIENTO SANTA RITA      
010829905ANTIOQUIA   CARMEN DE VIBORAL             SANTA INES                              1000001140000013100000104CORREGIMIENTO SANTA INES      
010829915ANTIOQUIA   CARMEN DE VIBORAL             LA MADERA                               1000002250000025400000205CORREGIMIENTO LA MADERA       
010829940ANTIOQUIA   CARMEN DE VIBORAL             AGUAS CLARAS                            1000006250000063600000406CORREGIMIENTO AGUAS CLARAS    
010850000ANTIOQUIA   CAROLINA                      PUESTO CABECERA MUNICIPAL               10000203300002027000012                                
010859909ANTIOQUIA   CAROLINA                      GUANACAS                                10000001600000015000001                                
010880101ANTIOQUIA   CAUCASIA                      I.E. SANTO DOMINGO                      10000310500002495000016                                
010880102ANTIOQUIA   CAUCASIA                      IE SANTO DOMINGO NUEVA SANTA H          10000300800001382000013                                
010880103ANTIOQUIA   CAUCASIA                      I.E. LICEO CAUCASIA STA HELENA          10000063400000593000004                                
010880104ANTIOQUIA   CAUCASIA                      I.E. LICEO CAUCASIA                     10000442200004712000026                                
010880105ANTIOQUIA   CAUCASIA                      I.E. CONCEJO MUNICIPAL                  10000048000000621000004                                
010880106ANTIOQUIA   CAUCASIA                      I.E. STA TERESITA LOMA FRESCA           10000135100001229000008                                
010880107ANTIOQUIA   CAUCASIA                      I.E. STA TERESITA CENTRO                10000251200003954000019                                
010880108ANTIOQUIA   CAUCASIA                      I.E.ANTIOQUIA LA GRANDE                 10000015700000120000001                                
010880201ANTIOQUIA   CAUCASIA                      I.E. LA MISERICORDIA SN RAFAEL          10000061200000660000004                                
010880202ANTIOQUIA   CAUCASIA                      COL MIL EL TESORO DEL SABER             10000102100000816000006                                
010880203ANTIOQUIA   CAUCASIA                      I.E. LA MISERICORDIA PPAL               10000491300003454000024                                
010880204ANTIOQUIA   CAUCASIA                      INST.EDUC.MARCO FIDEL SUAREZ            10000409900003789000023                                
010880205ANTIOQUIA   CAUCASIA                      I.E. DIVINO NIÑO PRINCIPAL              10000328400003745000020                                
010880206ANTIOQUIA   CAUCASIA                      I.E. DIVINO NIÑO SEC CARACOLI           10000203300001770000011                                
010880207ANTIOQUIA   CAUCASIA                      I.E. DIVINO NIÑO SEDE SAN JOSE          10000032000000261000002                                
010880208ANTIOQUIA   CAUCASIA                      I.E. LAS MALVINAS                       10000079700000677000005                                
010889801ANTIOQUIA   CAUCASIA                      CARCEL                                  10000001000000050000001                                
010889905ANTIOQUIA   CAUCASIA                      CUTURU                                  10000089700000969000006                                
010889906ANTIOQUIA   CAUCASIA                      EL PANDO                                10000024700000264000002                                
010889910ANTIOQUIA   CAUCASIA                      LA ILUSION                              10000014000000180000001                                
010889917ANTIOQUIA   CAUCASIA                      MARGENTO                                10000032900000478000003                                
010889925ANTIOQUIA   CAUCASIA                      PALANCA                                 10000011100000146000001                                
010889927ANTIOQUIA   CAUCASIA                      PUERTO COLOMBIA                         10000017500000254000002                                
010889928ANTIOQUIA   CAUCASIA                      PALOMAR                                 10000017900000230000002                                
010889940ANTIOQUIA   CAUCASIA                      PUERTO GLORIA                           10000029200000489000003                                
010889960ANTIOQUIA   CAUCASIA                      PUERTO TRIANA                           10000012900000257000002                                
010889970ANTIOQUIA   CAUCASIA                      SANTA ROSITA                            10000011000000148000001                                
010910000ANTIOQUIA   CISNEROS                      PUESTO CABECERA MUNICIPAL               10000582900005784000033                                
010940000ANTIOQUIA   COCORNA                       PUESTO CABECERA MUNICIPAL               10000537300005211000030                                
010949902ANTIOQUIA   COCORNA                       AGUALINDA                               10000004600000087000001                                
010949903ANTIOQUIA   COCORNA                       LA PIÑUELA                              10000045700000474000003                                
010949904ANTIOQUIA   COCORNA                       CRUCES                                  10000027400000306000002                                
010949913ANTIOQUIA   COCORNA                       LA FLORIDA                              10000004900000067000001                                
010949930ANTIOQUIA   COCORNA                       LA GRANJA                               10000018800000174000002                                
010949955ANTIOQUIA   COCORNA                       LA PRIMAVERA                            10000008100000133000001                                
010949958ANTIOQUIA   COCORNA                       PAILANIA                                10000014200000193000001                                
010970000ANTIOQUIA   CONCEPCION                    PUESTO CABECERA MUNICIPAL               10000218000002206000013                                
011000000ANTIOQUIA   CONCORDIA                     PUESTO CABECERA MUNICIPAL               10000713100007600000042                                
011009901ANTIOQUIA   CONCORDIA                     EL SOCORRO                              10000025400000294000002                                
011009905ANTIOQUIA   CONCORDIA                     MORELIA                                 10000018900000198000002                                
011009907ANTIOQUIA   CONCORDIA                     MORITOS                                 10000021300000256000002                                
011030101ANTIOQUIA   COPACABANA                    IE GABRIELA MISTRAL                     10000006900000074000001                                
011030102ANTIOQUIA   COPACABANA                    IE PRESBITERO B. MONTOYA                10000395600002950000020                                
011030103ANTIOQUIA   COPACABANA                    COL COOP JUAN DEL CORRAL                10000239100000736000009                                
011030104ANTIOQUIA   COPACABANA                    IE VILLANUEVA                           10000271100005063000022                                
011030201ANTIOQUIA   COPACABANA                    I.E ASUNCION PRIMARIA                   10000251200003154000017                                
011030202ANTIOQUIA   COPACABANA                    COL JOSE MIGUEL RESTREPO                10000705100005711000037                                
011030203ANTIOQUIA   COPACABANA                    IE CAMILO TORRES                        10000449600003509000023                                
011030204ANTIOQUIA   COPACABANA                    LICEO SAN LUIS GONZAGA                  10000654300006156000036                                
011030205ANTIOQUIA   COPACABANA                    IE LA TRINIDAD                          10000393500004183000023                                
011060101ANTIOQUIA   CHIGORODO                     ESC. SIMON BOLIVAR                      10000389000004577000024                                
011060102ANTIOQUIA   CHIGORODO                     ESC. BRISAS DEL RIO                     10000188300001315000010                                
011060201ANTIOQUIA   CHIGORODO                     INSTITUCIÓN EDUCATIVA CHIGOROD          10000318200004311000022                                
011060202ANTIOQUIA   CHIGORODO                     LICEO MUNICIPAL                         10000725200005344000036                                
011069001ANTIOQUIA   CHIGORODO                     INST.EDUCATIVA LOS ANDES                40000704600006751000018                                
011069905ANTIOQUIA   CHIGORODO                     BARRANQUILLITA                          10000022400000283000002                                
011090000ANTIOQUIA   DABEIBA                       PUESTO CABECERA MUNICIPAL               10000723000007782000043                                
011099901ANTIOQUIA   DABEIBA                       CAMPARRUSIA                             10000045800000550000003                                
011099904ANTIOQUIA   DABEIBA                       CRUCES URAMA                            10000013000000248000002                                
011099909ANTIOQUIA   DABEIBA                       URAMAGRANDE                             10000034500000434000003                                
011099910ANTIOQUIA   DABEIBA                       LA BALSITA - ARGELIA                    10000010200000149000001                                
011099970ANTIOQUIA   DABEIBA                       SANTA TERESA                            10000009900000099000001                                
011120000ANTIOQUIA   DON MATIAS                    PUESTO CABECERA MUNICIPAL               10000787200007222000043                                
011129901ANTIOQUIA   DON MATIAS                    BELLAVISTA                              10000038200000447000003                                
011129905ANTIOQUIA   DON MATIAS                    RIO GRANDE                              10000039500000492000003                                
011150000ANTIOQUIA   EBEJICO                       PUESTO CABECERA MUNICIPAL               10000357400003876000022                                
011159905ANTIOQUIA   EBEJICO                       BRASIL                                  1000004750000051000000301CORREGIMIENTO BRASIL          
011159906ANTIOQUIA   EBEJICO                       EL ZARZAL                               1000000230000001600000105CORREGIMIENTO EL ZARZAL       
011159907ANTIOQUIA   EBEJICO                       GUAYABAL                                1000000950000012900000102CORREGIMIENTO GUAYABAL        
011159909ANTIOQUIA   EBEJICO                       LA CLARA                                1000002000000028700000203CORREGIMIENTO LA CLARA        
011159925ANTIOQUIA   EBEJICO                       SEVILLA                                 1000011430000118700000704CORREGIMIENTO SEVILLA         
011170101ANTIOQUIA   EL BAGRE                      LICEO EL BAGRE                          10000309800006046000026                                
011170102ANTIOQUIA   EL BAGRE                      COLEGIO LA ESMERALDA                    10000242100003627000018                                
011170201ANTIOQUIA   EL BAGRE                      ESCUELA PORTUGAL                        10000352600001973000016                                
011170202ANTIOQUIA   EL BAGRE                      COLEGIO 20 DE JULIO                     10000564500003450000026                                
011179801ANTIOQUIA   EL BAGRE                      CARCEL MUNICIPAL                        10000000000000001000001                                
011179960ANTIOQUIA   EL BAGRE                      PUERTO CLAVER                           10000219800002412000014                                
011179965ANTIOQUIA   EL BAGRE                      PUERTO LOPEZ                            10000110500001402000008                                
011180000ANTIOQUIA   ENTRERRIOS                    PUESTO CABECERA MUNICIPAL               10000397800004431000024                                
011210101ANTIOQUIA   ENVIGADO                      COL LA SALLE DE ENVIGADO                10000767000006134000039                                
011210102ANTIOQUIA   ENVIGADO                      COL UNID EDUC SAN MARCOS                10000874600006915000045                                
011210103ANTIOQUIA   ENVIGADO                      IE MARCELIANO VELEZ                     10000757900008439000046                                
011210201ANTIOQUIA   ENVIGADO                      LICEO FRANCISCO RESTREPO MOLINA         10000784600010843000053                                
011210202ANTIOQUIA   ENVIGADO                      IE SAN VICENTE DE PAUL                  10001414400006894000060                                
011210203ANTIOQUIA   ENVIGADO                      ESC SUP TECNOLG DE ARTES DEBORA ARANGO  10000299100009919000037                                
011210301ANTIOQUIA   ENVIGADO                      ESC PIO XII                             10000615900002049000024                                
011210302ANTIOQUIA   ENVIGADO                      ESC FERNANDO GONZALEZ                   10001217400003111000044                                
011210303ANTIOQUIA   ENVIGADO                      IE MANUEL URIBE ANGEL (MUA)             10000627500008477000042                                
011210304ANTIOQUIA   ENVIGADO                      POLIDEPORTIVO SUR DE ENVIGADO           10000453200004069000025                                
011210401ANTIOQUIA   ENVIGADO                      URBANIZACION MULTIFAMILIAR SEÑORIAL     10000317900002813000017                                
011210402ANTIOQUIA   ENVIGADO                      IE LA PAZ                               10000901400005219000041                                
011210403ANTIOQUIA   ENVIGADO                      ESC. JHON F. KENNEDY                    10000556600007066000036                                
011210501ANTIOQUIA   ENVIGADO                      IE COMERCIAL DE ENVIGADO                10000451700003920000024                                
011210502ANTIOQUIA   ENVIGADO                      I. UNIVERSITARIA ENVIGADO               10000745800006423000040                                
011210503ANTIOQUIA   ENVIGADO                      I.E. EL SALADO                          10000328200002933000018                                
011210504ANTIOQUIA   ENVIGADO                      COL CUMBRES                             10000245300002387000014                                
011219001ANTIOQUIA   ENVIGADO                      JOSE MANUEL RESTREPO VELEZ              40001224100011530000030                                
011219801ANTIOQUIA   ENVIGADO                      CARCEL MUNICIPAL DE ENVIGADO            10000000200000036000001                                
011219901ANTIOQUIA   ENVIGADO                      LAS PALMAS                              10000233300002313000014                                
011240000ANTIOQUIA   FREDONIA                      PUESTO CABECERA MUNICIPAL               10000739200007547000043                                
011249801ANTIOQUIA   FREDONIA                      CARCEL                                  10000000400000026000001                                
011249901ANTIOQUIA   FREDONIA                      MINAS                                   10000024600000256000002                                
011249902ANTIOQUIA   FREDONIA                      BERLIN                                  10000016400000166000001                                
011249903ANTIOQUIA   FREDONIA                      LOS PALOMOS                             10000033900000331000002                                
011249904ANTIOQUIA   FREDONIA                      MARSELLA                                10000023000000248000002                                
011249905ANTIOQUIA   FREDONIA                      PUENTE IGLESIAS                         10000020000000222000002                                
011249920ANTIOQUIA   FREDONIA                      EL ZANCUDO                              10000025200000237000002                                
011249970ANTIOQUIA   FREDONIA                      PIEDRA VERDE                            10000019400000247000002                                
011270000ANTIOQUIA   FRONTINO                      PUESTO CABECERA MUNICIPAL               10000564700005649000032                                
011279901ANTIOQUIA   FRONTINO                      CARAUTA                                 10000012500000199000001                                
011279903ANTIOQUIA   FRONTINO                      CHONTADURO                              10000007000000094000001                                
011279905ANTIOQUIA   FRONTINO                      EL CERRO                                10000008700000115000001                                
011279907ANTIOQUIA   FRONTINO                      EL MADERO                               10000005400000076000001                                
011279909ANTIOQUIA   FRONTINO                      FUEMIA                                  10000013900000205000001                                
011279910ANTIOQUIA   FRONTINO                      JENGAMECODA                             10000004400000054000001                                
011279913ANTIOQUIA   FRONTINO                      MURRI                                   10000077700000903000005                                
011279914ANTIOQUIA   FRONTINO                      MUSINGA                                 10000025900000341000002                                
011279917ANTIOQUIA   FRONTINO                      PONTON                                  10000013900000156000001                                
011279919ANTIOQUIA   FRONTINO                      NOBOGA                                  10000011000000132000001                                
011279921ANTIOQUIA   FRONTINO                      NUTIBARA                                10000079100000865000005                                
011279955ANTIOQUIA   FRONTINO                      PANTANOS                                10000003200000037000001                                
011279958ANTIOQUIA   FRONTINO                      PARQUE LAS ORQUIDEAS                    10000002100000035000001                                
011300000ANTIOQUIA   GIRALDO                       PUESTO CABECERA MUNICIPAL               10000157500001664000010                                
011309907ANTIOQUIA   GIRALDO                       MANGLAR                                 10000034100000338000002                                
011309930ANTIOQUIA   GIRALDO                       PINGURO                                 10000012500000107000001                                
011330101ANTIOQUIA   GIRARDOTA                     NTRA. SRA. DE LA PRESENTACION           10000260200003879000019                                
011330102ANTIOQUIA   GIRARDOTA                     ESCUELA COLOMBIA                        10000599300004305000030                                
011330201ANTIOQUIA   GIRARDOTA                     PARQUE EDUCATIVO INNOVA                 10000187100007065000026                                
011330202ANTIOQUIA   GIRARDOTA                     COL JUAN BERNARDONE                     10000693500002062000026                                
011330203ANTIOQUIA   GIRARDOTA                     IE EMILIANO GARCIA                      10000545100005357000031                                
011339910ANTIOQUIA   GIRARDOTA                     CABILDO                                 10000072100000704000005                                
011339920ANTIOQUIA   GIRARDOTA                     LA MANGA ARRIBA                         10000053200000572000004                                
011339980ANTIOQUIA   GIRARDOTA                     SAN ANDRES                              10000082900000720000005                                
011360000ANTIOQUIA   GOMEZ PLATA                   PUESTO CABECERA MUNICIPAL               10000353900003681000021                                
011369901ANTIOQUIA   GOMEZ PLATA                   EL SALTO                                1000003260000034300000201CORREGIMIENTO EL SALTO        
011369905ANTIOQUIA   GOMEZ PLATA                   SAN MATIAS                              1000001940000022200000202CORREGIMIENTO SAN MATIAS      
011369920ANTIOQUIA   GOMEZ PLATA                   LA ESTRELLA                             1000001050000011300000103CORREGIMIENTO LA ESTRELLA     
011390000ANTIOQUIA   GRANADA                       PUESTO CABECERA MUNICIPAL               10000485800004821000028                                
011399901ANTIOQUIA   GRANADA                       SANTA ANA                               10000019400000249000002                                
011399940ANTIOQUIA   GRANADA                       LOS MEDIOS                              10000010100000107000001                                
011400000ANTIOQUIA   GUADALUPE                     PUESTO CABECERA MUNICIPAL               10000241200002607000015                                
011409945ANTIOQUIA   GUADALUPE                     GUADALUPE IV                            10000024700000302000002                                
011409975ANTIOQUIA   GUADALUPE                     MALABRIGO                               10000003400000059000001                                
011409985ANTIOQUIA   GUADALUPE                     SAN JUAN                                10000005100000053000001                                
011420101ANTIOQUIA   GUARNE                        INST. EDUCATIVA SANTO TOMAS             10000286800004813000022                                
011420102ANTIOQUIA   GUARNE                        COLISEO SANTO TOMAS                     10000308700001202000013                                
011420103ANTIOQUIA   GUARNE                        INST. EDUCATIVA EL ZANGO                10000323600000420000011                                
011420201ANTIOQUIA   GUARNE                        I.E. LA INMACULADA CONCEPCION           10000302700003587000019                                
011420202ANTIOQUIA   GUARNE                        COLEGIO SAN ANTONIO                     10000229500004469000020                                
011420203ANTIOQUIA   GUARNE                        I.E. CHAPARRAL                          10000063900000600000004                                
011429915ANTIOQUIA   GUARNE                        ALTO DE LA VIRGEN                       10000032100000338000002                                
011429920ANTIOQUIA   GUARNE                        BARRO BLANCO                            10000038600000371000003                                
011429940ANTIOQUIA   GUARNE                        LA HONDA                                10000036200000324000002                                
011429945ANTIOQUIA   GUARNE                        PIEDRAS BLANCAS                         10000038100000373000003                                
011429980ANTIOQUIA   GUARNE                        YOLOMBAL                                10000022400000206000002                                
011450000ANTIOQUIA   GUATAPE                       PUESTO CABECERA MUNICIPAL               10000344300003342000020                                
011480000ANTIOQUIA   HELICONIA                     PUESTO CABECERA MUNICIPAL               10000181900001901000011                                
011489901ANTIOQUIA   HELICONIA                     ALTO DEL CORRAL                         10000037100000416000003                                
011489904ANTIOQUIA   HELICONIA                     LA PAVA                                 10000014400000143000001                                
011489905ANTIOQUIA   HELICONIA                     PUEBLITO                                10000034400000412000003                                
011489913ANTIOQUIA   HELICONIA                     LLANOS DE SAN JOSE                      10000028600000321000002                                
011500000ANTIOQUIA   HISPANIA                      PUESTO CABECERA MUNICIPAL               10000260100002755000016                                
011509925ANTIOQUIA   HISPANIA                      EL LLANETE                              10000002200000028000001                                
011510101ANTIOQUIA   ITAGUI                        IDEM DIEGO ECHAVARRIA MISA              1000089850000566500004201COMUNA 1                      
011510102ANTIOQUIA   ITAGUI                        I.E. JUAN N. CADAVID                    1000023300000501600002101COMUNA 1                      
011510103ANTIOQUIA   ITAGUI                        COLEGIO EL ROSARIO                      1000070450000590700003701COMUNA 1                      
011510201ANTIOQUIA   ITAGUI                        ESC. ANTONIO JOSE DE SUCRE              1000045780001030600004301COMUNA 1                      
011510202ANTIOQUIA   ITAGUI                        IE AVELINO SALDARRIAGA GAVIRIA          1000103160000333100003901COMUNA 1                      
011510301ANTIOQUIA   ITAGUI                        I.E. ISOLDA ECHAVARRIA                  1000042330000353600002202COMUNA 2                      
011510302ANTIOQUIA   ITAGUI                        ESCUELA JOHN F. KENNEDY                 1000050500000666000003402COMUNA 2                      
011510303ANTIOQUIA   ITAGUI                        ESCUELA FELIPE DE RESTREPO              1000067580000393500003102COMUNA 2                      
011510304ANTIOQUIA   ITAGUI                        I.E. LUIS CARLOS GALAN                  10000027700000180000002                                
011510401ANTIOQUIA   ITAGUI                        ESCUELA SAN FRANCISCO                   1000054890000442100002803COMUNA 3                      
011510402ANTIOQUIA   ITAGUI                        ESCUELA ESTEBAN OCHOA                   1000053900000434500002803COMUNA 3                      
011510501ANTIOQUIA   ITAGUI                        ESCUELA SIMON BOLIVAR                   1000049870000431900002704COMUNA 4                      
011510502ANTIOQUIA   ITAGUI                        I.E. ENRIQUE VELEZ ESCOBAR              1000074230000605300003904COMUNA 4                      
011510503ANTIOQUIA   ITAGUI                        ESC. MARCELIANA SALDARRIAGA             1000058460000473000003004COMUNA 4                      
011510601ANTIOQUIA   ITAGUI                        ESCUELA ARNULFO FLOREZ                  1000069550000547600003604COMUNA 4                      
011510602ANTIOQUIA   ITAGUI                        I.E. PEDRO ESTRADA                      1000039150000403900002304COMUNA 4                      
011510603ANTIOQUIA   ITAGUI                        I.E. BENEDIKTA ZUR NIEDEN               10000039000000257000002                                
011510604ANTIOQUIA   ITAGUI                        I.E. ORESTES SINDICCE                   10000022400000170000002                                
011510701ANTIOQUIA   ITAGUI                        ESCUELA LOMA LINDA                      1000045920000366400002405COMUNA 5                      
011510702ANTIOQUIA   ITAGUI                        ESCUELA MARIA BERNAL                    1000037200000173900001605COMUNA 5                      
011510703ANTIOQUIA   ITAGUI                        I.E. MARIA JESUS MEJIA SEDE 2           1000033100000313200001905COMUNA 5                      
011510704ANTIOQUIA   ITAGUI                        I.E. CARLOS ENRIQUE CORTES              10000119600002139000010                                
011510801ANTIOQUIA   ITAGUI                        ESCUELA EL ROSARIO                      1000043090000328700002206COMUNA 6                      
011510802ANTIOQUIA   ITAGUI                        ESCUELA LA UNION                        1000038540000298000002006COMUNA 6                      
011510803ANTIOQUIA   ITAGUI                        IE MARIA JOSEFA ESCOBAR                 1000001590000012000000106COMUNA 6                      
011519001ANTIOQUIA   ITAGUI                        POLIDEPORTIVO ITAGUI                    40000006600017896000023                                
011519002ANTIOQUIA   ITAGUI                        UNIVERSIDAD IDEAS                       40001874100000011000024                                
011519801ANTIOQUIA   ITAGUI                        CARCEL DISTRITO NACIONAL                10000001300000195000001                                
011519802ANTIOQUIA   ITAGUI                        CARCEL YARUMITO                         10000001100000008000001                                
011519920ANTIOQUIA   ITAGUI                        EL MANZANILLO                           1000041940000389400002307CORREGIMIENTO EL MANZANILLO   
011540000ANTIOQUIA   ITUANGO                       PUESTO CABECERA MUNICIPAL               10000527100005667000031                                
011549801ANTIOQUIA   ITUANGO                       CARCEL                                  10000000100000013000001                                
011549905ANTIOQUIA   ITUANGO                       BADILLO                                 10000005600000093000001                                
011549909ANTIOQUIA   ITUANGO                       BUILOPOLIS                              10000010500000182000001                                
011549910ANTIOQUIA   ITUANGO                       FINLANDIA                               10000002700000047000001                                
011549911ANTIOQUIA   ITUANGO                       EL CEDRAL                               10000019900000215000002                                
011549912ANTIOQUIA   ITUANGO                       EL SOCORRO                              10000003000000040000001                                
011549913ANTIOQUIA   ITUANGO                       LA GRANJA                               10000058600000744000004                                
011549916ANTIOQUIA   ITUANGO                       PASCUITA                                10000018200000260000002                                
011549917ANTIOQUIA   ITUANGO                       SANTA ANA                               10000008300000102000001                                
011549918ANTIOQUIA   ITUANGO                       QUEBRADA DEL MEDIO                      10000025700000372000002                                
011549919ANTIOQUIA   ITUANGO                       SANTA LUCIA                             10000015800000257000002                                
011549920ANTIOQUIA   ITUANGO                       SAN JUANILLO                            10000007200000110000001                                
011549921ANTIOQUIA   ITUANGO                       SANTA RITA DE ITUANGO                   1000009960000135200000701CORR SANTA RITA DE SINITAVE   
011549950ANTIOQUIA   ITUANGO                       LA HUNDIDA                              10000009500000170000001                                
011549953ANTIOQUIA   ITUANGO                       LA PRENSA                               10000002600000033000001                                
011549975ANTIOQUIA   ITUANGO                       SAN PABLO DEL RIOSUCIO                  10000005000000107000001                                
011570000ANTIOQUIA   JARDIN                        PUESTO CABECERA MUNICIPAL               10000585800005807000033                                
011579906ANTIOQUIA   JARDIN                        LA CASCADA                              10000019600000219000002                                
011579908ANTIOQUIA   JARDIN                        LAS MACANAS                             10000010900000157000001                                
011600000ANTIOQUIA   JERICO                        PUESTO CABECERA MUNICIPAL               10000545000005313000031                                
011609801ANTIOQUIA   JERICO                        CARCEL                                  10000000500000020000001                                
011609907ANTIOQUIA   JERICO                        PALO CABILDO                            10000016000000181000001                                
011630101ANTIOQUIA   LA CEJA                       ESC. MARIA JOSEFA MARULANDA             10000211600002586000014                                
011630102ANTIOQUIA   LA CEJA                       CTRO. EDUCATIVO LA PAZ                  10000411100003583000022                                
011630103ANTIOQUIA   LA CEJA                       PARQUE BIBLIOTECA EL PARAISO            10000290800001743000014                                
011630104ANTIOQUIA   LA CEJA                       I.E.LA PAZ SEDE 2                       10000196000001947000012                                
011630201ANTIOQUIA   LA CEJA                       ESC JUSTO PASTOR MEJIA                  10000190700001660000011                                
011630202ANTIOQUIA   LA CEJA                       ESC. ALFONSO URIBE JARAMILLO            10000451200003504000023                                
011630203ANTIOQUIA   LA CEJA                       CENTRO DIA GERONTOLOGICO                10000143400002008000010                                
011639001ANTIOQUIA   LA CEJA                       COLISEO POLIDEPORTIVO LA CEJA           40000428700004494000012                                
011639801ANTIOQUIA   LA CEJA                       CARCEL                                  10000000700000064000001                                
011639947ANTIOQUIA   LA CEJA                       SAN JOSE                                1000006550000075500000401CORREGIMIENTO SAN JOSE        
011660101ANTIOQUIA   LA ESTRELLA                   SECC RAFAEL POMBO                       10000353000003076000019                                
011660102ANTIOQUIA   LA ESTRELLA                   COL. DIVINO SALVADOR                    10000404000003656000022                                
011660103ANTIOQUIA   LA ESTRELLA                   SEC.BTO ANA EVA ESCOBAR                 10000153000001605000009                                
011660201ANTIOQUIA   LA ESTRELLA                   UNIDAD DEPORTIVA INDERE                 10000412300004364000024                                
011660202ANTIOQUIA   LA ESTRELLA                   INST. EDUCACION CONCEJO MPAL            10000514000004405000027                                
011660203ANTIOQUIA   LA ESTRELLA                   INST.EDUC.JOSE ANTONIO GALAN            10000476200004396000026                                
011660204ANTIOQUIA   LA ESTRELLA                   S LA INMACULADA FE Y ALEGRIA            10000076800000682000005                                
011669001ANTIOQUIA   LA ESTRELLA                   COLEGIO BERNARDO ARANGO MACIA           40000563100004889000014                                
011669801ANTIOQUIA   LA ESTRELLA                   CARCEL                                  10000000100000034000001                                
011680000ANTIOQUIA   PUERTO NARE-LA MAGDALENA      PUESTO CABECERA MUNICIPAL               10000299500003261000018                                
011689904ANTIOQUIA   PUERTO NARE-LA MAGDALENA      EL DELIRIO                              10000008200000138000001                                
011689905ANTIOQUIA   PUERTO NARE-LA MAGDALENA      LA SIERRA                               10000196200002031000012                                
011689910ANTIOQUIA   PUERTO NARE-LA MAGDALENA      LA UNION                                10000024400000295000002                                
011689915ANTIOQUIA   PUERTO NARE-LA MAGDALENA      LOS LIMONES                             10000010100000154000001                                
011689920ANTIOQUIA   PUERTO NARE-LA MAGDALENA      LA PESCA                                10000037000000416000003                                
011690000ANTIOQUIA   LA UNION                      PUESTO CABECERA MUNICIPAL               10000804700008128000046                                
011699901ANTIOQUIA   LA UNION                      MESOPOTAMIA                             1000003450000031200000201CORREGIMIENTO MESOPOTAMIA     
011700000ANTIOQUIA   LA PINTADA                    PUESTO CABECERA MUNICIPAL               10000342300003446000020                                
011720000ANTIOQUIA   LIBORINA                      PUESTO CABECERA MUNICIPAL               10000262000002860000016                                
011729901ANTIOQUIA   LIBORINA                      EL CARMEN - LA VENTA                    10000028100000356000002                                
011729905ANTIOQUIA   LIBORINA                      LA HONDA                                10000030700000397000002                                
011729909ANTIOQUIA   LIBORINA                      LA MERCED                               10000021400000258000002                                
011729913ANTIOQUIA   LIBORINA                      SAN DIEGO                               10000090700001107000006                                
011750000ANTIOQUIA   MACEO                         PUESTO CABECERA MUNICIPAL               10000268600002961000016                                
011759901ANTIOQUIA   MACEO                         LA SUSANA                               10000033900000403000003                                
011759902ANTIOQUIA   MACEO                         LA FLORESTA                             10000042300000500000003                                
011759903ANTIOQUIA   MACEO                         PUERTO NUS                              10000014800000220000002                                
011780101ANTIOQUIA   MARINILLA                     COLISEO MUNICIPAL                       10000241500002673000015                                
011780102ANTIOQUIA   MARINILLA                     ESC. NORMAL SUP RAFAEL M. GIR           10000313900002484000016                                
011780201ANTIOQUIA   MARINILLA                     COL. NACIONAL SAN JOSE                  10000462900005302000029                                
011780202ANTIOQUIA   MARINILLA                     ESC. SABINA MUÑOZ DE BONILLA            10000417800002643000020                                
011789001ANTIOQUIA   MARINILLA                     INS.EDUC.TEC.INDUSTRIAL SIMON           40000613600006008000016                                
011789958ANTIOQUIA   MARINILLA                     LA PRIMAVERA                            10000012300000134000001                                
011810000ANTIOQUIA   MONTEBELLO                    PUESTO CABECERA MUNICIPAL               10000269600003010000017                                
011819901ANTIOQUIA   MONTEBELLO                    SABALETAS                               10000011500000155000001                                
011819905ANTIOQUIA   MONTEBELLO                    EL CARMELO                              10000010900000086000001                                
011840000ANTIOQUIA   MURINDO                       PUESTO CABECERA MUNICIPAL               10000111200001228000007                                
011849901ANTIOQUIA   MURINDO                       OPOGADO                                 10000007000000074000001                                
011849902ANTIOQUIA   MURINDO                       CAMPO ALEGRE                            10000010500000102000001                                
011849903ANTIOQUIA   MURINDO                       JEDEGA                                  10000008900000077000001                                
011870000ANTIOQUIA   MUTATA                        PUESTO CABECERA MUNICIPAL               10000335500003550000020                                
